:020000040800F2
:1060000000FC002039BA0008B5BA000841BB0008FE
:10601000ADBB0008AFBB0008B1BB0008000000002A
:10602000000000000000000000000000B3BB0008FA
:10603000B5BB000800000000B7BB0008B7BB0008F4
:1060400089BA000889BA0008D5BB000889BA0008D7
:1060500089BA000889BA00082BBC000831BC0008C6
:1060600037BC00083DBC000843BC0008E1BB000889
:10607000EDBB0008F9BB000805BC000889BA0008A0
:1060800089BA000889BA000889BA000889BA0008E4
:1060900089BA000889BA000849BC000889BA000812
:1060A00089BA000889BA000889BA000889BA0008C4
:1060B00089BA000889BA000889BA000889BA0008B4
:1060C000F5BC000801BD000889BA000889BA0008BB
:1060D00011BC000829BC0008DDBC000889BA000812
:1060E00089BA000889BC0008BDBB000889BA00084D
:1060F00089BA000889BA000889BA000889BA000874
:1061000089BA000889BA0008C9BB00080DBD00089B
:1061100089BA000889BA000889BA000889BA000853
:1061200089BA000889BA000889BA000889BA000843
:0861300089BA000889BA0008D1
:1061400010B5054C237833B9044B13B10448AFF3B1
:1061500000800123237010BD08050020000000000E
:106160008808020808B5034B1BB103490348AFF385
:10617000008008BD000000000C050020880802080F
:1061800010F8012B11F8013B012A28BF9A42F7D0E1
:10619000D01A7047034613F8012B002AFBD1181AB6
:1061A00001387047000000000000000000000000FF
:1061B00001F0FF01102A2BDB10F0070F08D010F8B8
:1061C000013B013A8B422DD010F0070F42B3F6D1BC
:1061D000F0B441EA012141EA014122F007047FF0D5
:1061E00000070023F0E80256083C85EA010586EA2C
:1061F000010685FA47F5A3FA87F586FA47F6A5FA68
:1062000087F68EB9EED1F0BC01F0FF0102F0070273
:1062100032B110F8013B013A83EA010313B1F8D11E
:106220000020704701387047002D06BF35460338FF
:10623000073815F0010F07D1013015F4807F02BF38
:10624000013015F4C03F0130F0BC0138704700BF89
:1062500081F0004102E000BF83F0004330B54FEA17
:1062600041044FEA430594EA050F08BF90EA020F84
:106270001FBF54EA000C55EA020C7FEA645C7FEA17
:10628000655C00F0E2804FEA5454D4EB5555B8BF3A
:106290006D420CDD2C4480EA020281EA030382EAAB
:1062A000000083EA010180EA020281EA0303362D3D
:1062B00088BF30BD11F0004F4FEA01314FF4801C10
:1062C0004CEA113102D0404261EB410113F0004F22
:1062D0004FEA03334CEA133302D0524263EB4303D9
:1062E00094EA050F00F0A780A4F10104D5F1200E77
:1062F0000DDB02FA0EFC22FA05F2801841F10001D2
:1063000003FA0EF2801843FA05F359410EE0A5F1A5
:1063100020050EF1200E012A03FA0EFC28BF4CF0D6
:10632000020C43FA05F3C01851EBE37101F000458C
:1063300007D54FF0000EDCF1000C7EEB00006EEB99
:106340000101B1F5801F1BD3B1F5001F0CD3490823
:106350005FEA30004FEA3C0C04F101044FEA44527A
:1063600012F5800F80F09A80BCF1004F08BF5FEA01
:10637000500C50F1000041EB045141EA050130BDE1
:106380005FEA4C0C404141EB0101013C28BFB1F5F3
:10639000801FE9D291F0000F04BF01460020B1FA3E
:1063A00081F308BF2033A3F10B03B3F120020CDA11
:1063B0000C3208DD02F1140CC2F10C0201FA0CF0EF
:1063C00021FA02F10CE002F11402D8BFC2F1200C54
:1063D00001FA02F120FA0CFCDCBF41EA0C0190400A
:1063E000E41AA2BF01EB0451294330BD6FEA040453
:1063F0001F3C1CDA0C340EDC04F11404C4F120023E
:1064000020FA04F001FA02F340EA030021FA04F34F
:1064100045EA030130BDC4F10C04C4F1200220FAA6
:1064200002F001FA04F340EA0300294630BD21FAE4
:1064300004F0294630BD94F0000F83F4801306BFAA
:1064400081F480110134013D4EE77FEA645C18BF9E
:106450007FEA655C29D094EA050F08BF90EA020F35
:1064600005D054EA000C04BF1946104630BD91EA2D
:10647000030F1EBF0021002030BD5FEA545C05D130
:106480004000494128BF41F0004130BD14F580046F
:106490003CBF01F5801130BD01F0004545F0FE41E3
:1064A00041F470014FF0000030BD7FEA645C1ABF18
:1064B000194610467FEA655C1CBF0B46024650EA4F
:1064C000013406BF52EA033591EA030F41F400217B
:1064D00030BD00BF90F0000F04BF0021704730B501
:1064E0004FF4806404F132044FF000054FF00001D6
:1064F00050E700BF90F0000F04BF0021704730B597
:106500004FF4806404F1320410F0004548BF40426B
:106510004FF000013EE700BF42004FEAE2014FEAC0
:1065200031014FEA02701FBF12F07F4393F07F4F9B
:1065300081F06051704732F07F4208BF704793F09E
:106540007F4F04BF41F40021704730B54FF46074B1
:1065500001F0004521F000411CE700BF50EA0102B4
:1065600008BF704730B54FF000050AE050EA01025D
:1065700008BF704730B511F0004502D5404261EBCD
:1065800041014FF4806404F132045FEA915C3FF40E
:10659000D8AE4FF003025FEADC0C18BF03325FEAAB
:1065A000DC0C18BF033202EBDC02C2F1200300FA5C
:1065B00003FC20FA02F001FA03FE40EA0E0021FA81
:1065C00002F11444BDE600BF70B54FF0FF0C4CF46F
:1065D000E06C1CEA11541DBF1CEA135594EA0C0F21
:1065E00095EA0C0F00F0DEF82C4481EA030621EA5C
:1065F0004C5123EA4C5350EA013518BF52EA033597
:1066000041F4801143F4801338D0A0FB02CE4FF048
:106610000005E1FB02E506F00042E0FB03E54FF078
:106620000006E1FB03569CF0000F18BF4EF0010E70
:10663000A4F1FF04B6F5007F64F5407404D25FEA6C
:106640004E0E6D4146EB060642EAC62141EA55511F
:106650004FEAC52040EA5E504FEACE2EB4F1FD0C61
:1066600088BFBCF5E06F1ED8BEF1004F08BF5FEADF
:10667000500E50F1000041EB045170BD06F0004691
:1066800046EA010140EA020081EA0301B4EB5C043E
:10669000C2BFD4EB0C0541EA045170BD41F4801136
:1066A0004FF0000E013C00F3AB8014F1360FDEBF5B
:1066B000002001F0004170BDC4F10004203C35DA37
:1066C0000C341BDC04F11404C4F1200500FA05F3BA
:1066D00020FA04F001FA05F240EA020001F000425B
:1066E00021F0004110EBD37021FA04F642EB0601D1
:1066F0005EEA430E08BF20EAD37070BDC4F10C04FB
:10670000C4F1200500FA04F320FA05F001FA04F2BE
:1067100040EA020001F0004110EBD37041F10001AA
:106720005EEA430E08BF20EAD37070BDC4F12005B5
:1067300000FA05F24EEA020E20FA04F301FA05F21D
:1067400043EA020321FA04F001F0004121FA04F2C5
:1067500020EA020000EBD3705EEA430E08BF20EA95
:10676000D37070BD94F0000F0FD101F000464000CF
:1067700041EB010111F4801F08BF013CF7D041EA51
:10678000060195F0000F18BF704703F00046520055
:1067900043EB030313F4801F08BF013DF7D043EA26
:1067A0000603704794EA0C0F0CEA135518BF95EADC
:1067B0000C0F0CD050EA410618BF52EA4306D1D163
:1067C00081EA030101F000414FF0000070BD50EA82
:1067D000410606BF1046194652EA430619D094EA0C
:1067E0000C0F02D150EA013613D195EA0C0F05D1F6
:1067F00052EA03361CBF104619460AD181EA03014A
:1068000001F0004141F0FE4141F470014FF0000001
:1068100070BD41F0FE4141F4780170BD70B54FF09C
:10682000FF0C4CF4E06C1CEA11541DBF1CEA13551C
:1068300094EA0C0F95EA0C0F00F0A7F8A4EB0504FE
:1068400081EA030E52EA03354FEA013100F08880F5
:106850004FEA03334FF0805545EA131343EA1263BE
:106860004FEA022245EA111545EA10654FEA002673
:106870000EF000419D4208BF964244F1FD0404F52C
:10688000407402D25B084FEA3202B61A65EB030588
:106890005B084FEA32024FF480104FF4002CB6EB45
:1068A000020E75EB030E22BFB61A754640EA0C00C5
:1068B0005B084FEA3202B6EB020E75EB030E22BF05
:1068C000B61A754640EA5C005B084FEA3202B6EB46
:1068D000020E75EB030E22BFB61A754640EA9C0005
:1068E0005B084FEA3202B6EB020E75EB030E22BFD5
:1068F000B61A754640EADC0055EA060E18D04FEA93
:10690000051545EA16754FEA06164FEAC30343EA32
:1069100052734FEAC2025FEA1C1CC0D111F4801FFF
:106920000BD141EA00014FF000004FF0004CB6E7F8
:1069300011F4801F04BF01430020B4F1FD0C88BF97
:10694000BCF5E06F3FF6AFAEB5EB030C04BFB6EBA2
:10695000020C5FEA500C50F1000041EB045170BD95
:106960000EF0004E4EEA113114EB5C04C2BFD4EBC2
:106970000C0541EA045170BD41F480114FF0000E46
:10698000013C90E645EA060E8DE60CEA135594EAC2
:106990000C0F08BF95EA0C0F3FF43BAF94EA0C0FC5
:1069A0000AD150EA01347FF434AF95EA0C0F7FF43A
:1069B00025AF104619462CE795EA0C0F06D152EA8E
:1069C00003353FF4FDAE1046194622E750EA410672
:1069D00018BF52EA43067FF4C5AE50EA41047FF483
:1069E0000DAF52EA43057FF4EBAE12E74FF0FF3CE8
:1069F00006E000BF4FF0010C02E000BF4FF0010CB9
:106A00004DF804CD4FEA410C7FEA6C5C4FEA430C31
:106A100018BF7FEA6C5C1BD001B050EA410C0CBF80
:106A200052EA430C91EA030F02BF90EA020F0020E2
:106A3000704710F1000F91EA030F58BF994208BF49
:106A400090422CBFD8176FEAE37040F00100704706
:106A50004FEA410C7FEA6C5C02D150EA013C07D15D
:106A60004FEA430C7FEA6C5CD6D152EA033CD3D0A8
:106A70005DF8040B704700BF8446104662468C46A2
:106A80001946634600E000BF01B5FFF7B7FF0028D5
:106A900048BF10F1000F01BD4DF808EDFFF7F4FFFE
:106AA0000CBF012000205DF808FB00BF4DF808ED89
:106AB000FFF7EAFF34BF012000205DF808FB00BFAC
:106AC0004DF808EDFFF7E0FF94BF012000205DF8CE
:106AD00008FB00BF4DF808EDFFF7CEFF94BF012083
:106AE00000205DF808FB00BF4DF808EDFFF7C4FF7C
:106AF00034BF012000205DF808FB00BF4FEA410CC5
:106B00007FEA6C5C02D150EA013C0AD14FEA430CA7
:106B10007FEA6C5C02D152EA033C02D14FF00000E4
:106B200070474FF0010070474FEA410212F5001222
:106B300015D211D56FF47873B3EB625212D94FEAC4
:106B4000C12343F0004343EA505311F0004F23FAAE
:106B500002F018BF404270474FF00000704750EA03
:106B6000013005D111F0004008BF6FF000407047C0
:106B70004FF00000704700BF4A0011D212F500121A
:106B800011D20DD56FF47873B3EB62520ED44FEA85
:106B9000C12343F0004343EA505323FA02F0704705
:106BA0004FF00000704750EA013002D14FF0FF3043
:106BB00070474FF0000070474FEA4102B2F1E043E6
:106BC00024BFB3F5001CDCF1FE5C0DD901F0004CD4
:106BD0004FEAC0024CEA5070B2F1004F40EB830024
:106BE00008BF20F00100704711F0804F21D113F150
:106BF0003872BCBF01F00040704741F480114FEA89
:106C00005252C2F11802C2F1200C10FA0CF320FA11
:106C100002F018BF40F001004FEAC1234FEAD3232E
:106C200003FA0CFC40EA0C0023FA02F34FEA430398
:106C3000CCE77FEA625307D150EA01331EBF4FF021
:106C4000FE4040F44000704701F0004040F0FE403C
:106C500040F40000704700BF80F0004002E000BF39
:106C600081F0004142001FBF5FEA410392EA030F37
:106C70007FEA226C7FEA236C6AD04FEA1262D2EB81
:106C80001363C1BFD218414048404140B8BF5B4286
:106C9000192B88BF704710F0004F40F4000020F01F
:106CA0007F4018BF404211F0004F41F4000121F035
:106CB0007F4118BF494292EA030F3FD0A2F101027F
:106CC00041FA03FC10EB0C00C3F1200301FA03F1BD
:106CD00000F0004302D5494260EB4000B0F5000FE0
:106CE00013D3B0F1807F06D340084FEA310102F19F
:106CF0000102FE2A51D2B1F1004F40EBC25008BF51
:106D000020F0010040EA03007047490040EB00001A
:106D1000013A28BFB0F5000FEDD2B0FA80FCACF11B
:106D2000080CB2EB0C0200FA0CF0AABF00EBC25048
:106D300052421843BCBFD0401843704792F0000F36
:106D400081F4000106BF80F400000132013BB5E789
:106D50004FEA41037FEA226C18BF7FEA236C21D0FF
:106D600092EA030F04D092F0000F08BF0846704764
:106D700090EA010F1CBF0020704712F07F4F04D132
:106D8000400028BF40F00040704712F100723CBF45
:106D900000F50000704700F0004343F0FE4040F46F
:106DA000000070477FEA226216BF08467FEA23632D
:106DB0000146420206BF5FEA412390EA010F40F418
:106DC000800070474FF0000304E000BF10F0004364
:106DD00048BF40425FEA000C08BF704743F096434B
:106DE00001464FF000001CE050EA010208BF704766
:106DF0004FF000030AE000BF50EA010208BF7047ED
:106E000011F0004302D5404261EB41015FEA010C01
:106E100002BF84460146002043F0B64308BFA3F1F9
:106E20008053A3F50003BCFA8CF2083AA3EBC253DB
:106E300010DB01FA02FC634400FA02FCC2F12002FA
:106E4000BCF1004F20FA02F243EB020008BF20F031
:106E50000100704702F1200201FA02FCC2F1200297
:106E600050EA4C0021FA02F243EB020008BF20EA8C
:106E7000DC7070474FF0FF0C1CEAD0521EBF1CEABA
:106E8000D15392EA0C0F93EA0C0F6FD01A4480EAA8
:106E9000010C400218BF5FEA41211ED04FF0006391
:106EA00043EA501043EA5111A0FB01310CF00040BD
:106EB000B1F5000F3EBF490041EAD3715B0040EAE3
:106EC000010062F17F02FD2A1DD8B3F1004F40EBB3
:106ED000C25008BF20F00100704790F0000F0CF086
:106EE000004C08BF49024CEA502040EA51207F3A4A
:106EF000C2BFD2F1FF0340EAC250704740F4000025
:106F00004FF00003013A5DDC12F1190FDCBF00F015
:106F100000407047C2F10002410021FA02F1C2F1C3
:106F2000200200FA02FC5FEA310040F1000053EA5F
:106F30004C0308BF20EADC70704792F0000F00F0AD
:106F4000004C02BF400010F4000F013AF9D040EAB3
:106F50000C0093F0000F01F0004C02BF490011F447
:106F6000000F013BF9D041EA0C018FE70CEAD15345
:106F700092EA0C0F18BF93EA0C0F0AD030F0004CC5
:106F800018BF31F0004CD8D180EA010000F0004079
:106F9000704790F0000F17BF90F0004F084691F037
:106FA000000F91F0004F14D092EA0C0F01D1420271
:106FB0000FD193EA0C0F03D14B0218BF084608D13A
:106FC00080EA010000F0004040F0FE4040F4000084
:106FD000704740F0FE4040F4400070474FF0FF0C17
:106FE0001CEAD0521EBF1CEAD15392EA0C0F93EA5E
:106FF0000C0F69D0A2EB030280EA010C49024FEAB0
:10700000402037D04FF0805343EA111143EA101368
:107010000CF000408B4238BF5B0042F17D024FF420
:10702000000C8B4224BF5B1A40EA0C00B3EB510FFB
:1070300024BFA3EB510340EA5C00B3EB910F24BFE4
:10704000A3EB910340EA9C00B3EBD10F24BFA3EB69
:10705000D10340EADC001B0118BF5FEA1C1CE0D131
:10706000FD2A3FF650AF8B4240EBC25008BF20F0E4
:10707000010070470CF0004C4CEA50207F32C2BF38
:10708000D2F1FF0340EAC250704740F400004FF0D5
:107090000003013A37E792F0000F00F0004C02BF06
:1070A000400010F4000F013AF9D040EA0C0093F0D0
:1070B000000F01F0004C02BF490011F4000F013B2A
:1070C000F9D041EA0C0195E70CEAD15392EA0C0F92
:1070D00008D142027FF47DAF93EA0C0F7FF470AFCA
:1070E000084676E793EA0C0F04D14B023FF44CAF0D
:1070F00008466EE730F0004C18BF31F0004CCAD1A2
:1071000030F000427FF45CAF31F000437FF43CAFDD
:107110005FE700BF4FF0FF3C06E000BF4FF0010CFF
:1071200002E000BF4FF0010C4DF804CD4FEA4002E1
:107130004FEA41037FEA226C18BF7FEA236C11D02B
:1071400001B052EA530C18BF90EA010F58BFB2EBDE
:10715000030088BFC81738BF6FEAE17018BF40F05E
:10716000010070477FEA226C02D15FEA402C05D112
:107170007FEA236CE4D15FEA412CE1D05DF8040B97
:10718000704700BF844608466146FFE70FB5FFF72A
:10719000C9FF002848BF10F1000F0FBD4DF808EDE2
:1071A000FFF7F4FF0CBF012000205DF808FB00BFD3
:1071B0004DF808EDFFF7EAFF34BF012000205DF82D
:1071C00008FB00BF4DF808EDFFF7E0FF94BF01207A
:1071D00000205DF808FB00BF4DF808EDFFF7D2FF77
:1071E00094BF012000205DF808FB00BF4DF808EDBA
:1071F000FFF7C8FF34BF012000205DF808FB00BF87
:107200004FEA4002B2F1FE4F0FD34FF09E03B3EBB3
:1072100012620DD94FEA002343F0004310F0004FF3
:1072200023FA02F018BF404270474FF00000704749
:1072300012F1610F01D1420205D110F0004008BFE8
:107240006FF0004070474FF00000704753B94AB9E3
:10725000002908BF00281CBF4FF0FF314FF0FF305E
:1072600000F06CB9ADF1080C6DE904CE00F006F841
:10727000DDF804E0DDE9022304B070472DE9F047B2
:10728000089E0D4604468E46002B40F082808A42BE
:10729000174646D9B2FA82F24AB1C2F1200105FA84
:1072A00002F320FA01F1974041EA030E94404FEABD
:1072B0001748230CBEFBF8FCB9B208FB1CEE43EAEE
:1072C0000E430CFB01F098420AD9FB180CF1FF3574
:1072D00080F01681984240F21381ACF1020C3B44DD
:1072E0001B1AA4B2B3FBF8F008FB103344EA0344C2
:1072F00000FB01F1A14209D93C1900F1FF3380F0F4
:107300000181A14240F2FE8002383C44641A40EA06
:107310000C4000211EB1D4400023C6E90043BDE863
:10732000F08702B9FFDEB2FA82F2002A4FD1CB1BFE
:107330004FEA174E1FFA87F80121B3FBFEFC250C1C
:107340000EFB1C3345EA034508FB0CF3AB4207D99F
:107350007D190CF1FF3002D2AB4200F2E780844687
:10736000ED1AA3B2B5FBFEF00EFB105543EA05443F
:1073700008FB00F8A04507D93C1900F1FF3302D201
:10738000A04500F2D7801846A4EB080440EA0C4060
:10739000C0E78B4208D9002E00F0AF800021C6E97B
:1073A00000050846BDE8F087B3FA83F100294BD108
:1073B000AB4202D3824200F2B780841A65EB03032A
:1073C00001209E46002EAAD0C6E9004EA7E7C2F1D2
:1073D000200C01FA02F3974020FA0CF04FEA174E06
:1073E00021FA0CFC1843BCFBFEF1050C0EFB11CC82
:1073F0001FFA87F845EA0C4501FB08F3AB4204FA93
:1074000002F409D97D1901F1FF3C80F08B80AB4279
:1074100040F2888002393D44EB1A85B2B3FBFEF09E
:107420000EFB103345EA034500FB08F3AB4207D9D6
:107430007D1900F1FF3C71D2AB426FD902383D4457
:10744000EB1A40EA014178E7C1F1200C8B4022FAA7
:107450000CF71F4320FA0CF405FA01F34FEA174E1C
:1074600025FA0CF51C43230CB5FBFEF91FFA87F82F
:107470000EFB195543EA054509FB08FAAA4502FA2D
:1074800001F200FA01F308D97D1909F1FF3047D262
:10749000AA4545D9A9F102093D44A5EB0A05A4B2C4
:1074A000B5FBFEF00EFB105544EA054400FB08F85E
:1074B000A04507D93C1900F1FF352DD2A0452BD9A5
:1074C00002383C4440EA0940A4EB0804A0FB0289CE
:1074D0004C45C6464D4619D316D05EB1B3EB0E02ED
:1074E00064EB050404FA0CFCCA404CEA0202CC40EE
:1074F000C6E900240021BDE8F087314630460EE79A
:10750000AC46EDE6184601E74345E6D2B8EB020E7D
:1075100069EB07050138E0E72846D3E760468FE7C7
:107520008146BAE7614677E708464BE7ACF1020CC3
:107530003D4415E702383C4426E700BF704700BFD2
:10754000BFF34F8F0549064BCA6802F4E06213434C
:10755000CB60BFF34F8F00BFFDE700BF00ED00E041
:107560000400FA051FB54FF0B04304461A6E42F40A
:1075700000721A661B6E1A4A03F400730093009B94
:107580004FF00043C0E9002304224261012200239E
:107590000283C2610722C0E90233C0E909330361F3
:1075A000837680F8203080F82C300363426380F8C3
:1075B0003C30C36409F0A2FE08B1FFF7C1FF2046CA
:1075C0000AF0F8F90028F8D1064B0390CDE9013014
:1075D00001A920460AF014F80028EED104B010BD2D
:1075E00000240140002000B40B4A38B5136843F46E
:1075F0008003044613600AF05DF94FF0FF31204626
:1076000009F0A0FF204609F0F8FF054620460AF0E1
:10761000B3F9A8B238BD00BF08270140F8B5064647
:10762000FFF7A0FF0D4B1F880A2500243046FFF707
:10763000DBFF013D0444F9D13846FFF7C3FB0546A3
:107640000A20B4FBF0F080B2FFF7BCFB01462846ED
:10765000FFF7C4FC0249FFF70DFCF8BDAA75FF1F38
:107660003333534010B50C4620460C49FFF7BEFD9E
:1076700090B94FF080412046FFF79AFD08B14FF0D6
:1076800080444FF080412046FFF7EAFA0449FFF7B3
:10769000F1FBFFF7B5FD10BD004CF2E700004040E4
:1076A0000000C842704710B50446FFF7B7FF014617
:1076B0002046FFF7D7FFFFF789FB10BD084602F011
:1076C0009BBA084602F090BA0846114602F0A8BFDD
:1076D0004FF6FF7399421FBF03688A0903EBC20389
:1076E00001F03F011ABF586800EB011000207047FD
:1076F00000EBC10282B050F8310051686B4603C301
:10770000DDE9000102B07047B1F5803F70B5064673
:107710000D46144609D2136801F109029B6801461F
:107720002046984708B1C58070BD236820465B6835
:10773000314698470020F7E70B6802465B68084629
:107740001146184738B5044600680B460025114617
:1077500068B100F1080293420CD18388013B9BB2CF
:10776000838023B903681DB12B60FFF7E5FF38BDA7
:107770002360FAE705460068EAE72DE9F0470026AE
:1077800004460D46B146A28C276AB3B29A420FD97D
:1077900007EBC3089A46D8F8041019B12B6828469D
:1077A0005B68984747F83A900136C8F80490EAE7D2
:1077B0000023A384BC424FF6FF73238507D02B68B8
:1077C00039465B682846984704232462E384BDE871
:1077D000F08738B505680446A06828B10368A3603F
:1077E0002946FFF7A9FFF7E7204650F80C1BFFF7E3
:1077F000C4FF204638BD8B8C30B5013B0D6A9BB26F
:1078000005EBC30462689AB1618835F833508D4244
:107810000ED902EB01124D1C658000244FF6FF7556
:1078200014725581D460026001EB8313838030BDF4
:10783000002303604FF6FF73F8E738B5044650F8AD
:107840000C1BFFF79AFF002325682371A06828B15D
:107850000368A3602946FFF76FFFF7E738BD2DE9FE
:10786000F84F037ADB0706460C4606D5016820462A
:10787000083150F8082BFFF765FF337A13F0600FDB
:1078800027D037884FF6FF7904F12C0A04F1080B52
:107890004F451CD039465046FFF71AFF90F9083083
:1078A000B0F80A80002B054604DAC1682268584601
:1078B000FFF748FF21462846FFF7D1FF2B7A23F038
:1078C0007F032B72A38E6B81A7864746E0E7378044
:1078D0007780BDE8F88F2DE9F04F968E4FF6FF794F
:1078E0004E4585B007468846144615D0314602F10C
:1078F0002C00FFF7EDFE4389A386002305460372A3
:10790000A0F80A90C360B8F802104FF6FF739942CE
:107910006DD1A8F800606FE01646138E56F80C9BE8
:1079200043B1314602A8FFF766FF029D15B1BDF8CD
:107930000C60E8E7638E258E9D421DD1B5F5806F02
:107940004AD0E36AD9F800106D00ADB29E424FEA0A
:10795000C5023AD10B6848461146984700283BD0EB
:107960003346024606F1200153F804CB42F804CB1B
:107970008B42F9D1E0626586B4F830A0E36A0193E6
:107980000AF1010292B2B2F5806F2286D9F8002086
:107990000CBF3F25402529011268484603EBCA0B5E
:1079A0009047019BCBF80400002808BF002523F86E
:1079B0003A5000233146ABF8023002A8FFF71BFF14
:1079C000029DBDF80C603DB19DE7D1F808A0484686
:1079D0001946D0470028CDD10123237100233B60F5
:1079E0004FF6FF73BB80384605B0BDE8F08F04F159
:1079F0002C00FFF76DFE4681A8F802606B893D60A0
:107A0000BE80FB80EFE738B5436A034400251D7153
:107A10000446011D006805F0AAFE00B16562606AB7
:107A200038BD38B5436A01331F2B04460D4606D8CE
:107A3000606A431C636204440120257138BDFFF76E
:107A4000E2FF0028F4D00020F8E7000038B500235A
:107A50008360436804464BB9056828680368282199
:107A60001B68984718B1034B4360606038BD012321
:107A70002B71FAE701001F00F8B5D0E90132134479
:107A800000221A72D0E9005381680446CA1DA86812
:107A90001A4470B1C688B14209D1DE1DC71DB24279
:107AA00015D016F801EF17F801CFE645F7D00068BA
:107AB000EFE72A681846FFF727FE08B901232B7164
:107AC00023689A680260986000236360F8BD838829
:107AD00001338380FAE770B5044640680D4668B10B
:107AE000A368C288934209D126685B003268591C9A
:107AF000FFF70AFE08B9012333716060636823B1A0
:107B0000A2681344511CA1601D7270BD2DE9F84F8D
:107B100003782B2B06460F4637D02D2B36D1013656
:107B20004FF001083378A3F13002092A02D92E2B35
:107B300040F009818549002400254FF099304FF02D
:107B40000A09B6461EF8013BA3F1300C5FFA8CFC23
:107B5000BCF1090F1DD8A94208BFA04222D309FBDE
:107B600005F3A4FB09451D444FF0FF3B6FEA0C0AE7
:107B7000AB4508BFA2455FFA8CF24FF0000311D36A
:107B8000A41843EB05057646DBE701364FF0000805
:107B9000C8E73BB9B8F1000F27D0B5F1004F08BFD7
:107BA000012C14D300234FF0000A4FF4801B5D45D5
:107BB00008BF544503F1010921D30023204629467B
:107BC0000A22FFF743FB4B4604460D46EFE73B7A9C
:107BD000644265EB450523F07F03C7E9004543F0A8
:107BE0000A033B724046BDE8F88F3B7AC7E900457F
:107BF00023F07F0343F008033B720120F3E79B1B54
:107C00009919324616F8010BA0F1300CBCF1090F9E
:107C100009B2F5D92E281DD1DFF844B1B4464FF092
:107C2000993A4FF00A0E62460CF1010C1078303888
:107C3000C0B209280ED85D4508BF5445F3D2A4FB55
:107C40000E230EFB0533141801F1FF3643F1000536
:107C500031B2E8E7137803F0DF03452B61D15378A5
:107C60002D2B23D1961C012000234FF00A0E324603
:107C700016F801CBACF1300C5FFA8CF9B9F1090FB1
:107C80002CD80EFB03C3CA18B2F59A7FEFDD3B7AFE
:107C9000A8B10024B8F1000F0ED1002523F07F0316
:107CA00043F00C03C7E900453B729CE72B2B14BF44
:107CB000561C961C0020D7E74FF00045EEE7002049
:107CC000B8F1000F08D1224923F07F0343F00C03E1
:107CD000C7E900013B7290E71E49F5E700B15B423E
:107CE00092F80090B9F1000F2DD1CE182046294608
:107CF000FEF734FC184D194B002ED8BF1D46002E40
:107D0000B8BF76427EB1F30707D55FFA89F305EB7A
:107D1000C303D3E90023FEF757FC761009F10109EC
:107D2000F0E70023DCE7B8F1000F01D001F10041DA
:107D30003B7A23F07F0343F00C033B7202460B4671
:107D4000C7E9002359E700204DE700BF9999991929
:107D50000000F07F0000F0FF000A0208B8090208E6
:107D60009999010010B51F490446FEF709FA50B36E
:107D70001D492046FEF704FA30B31C492046FEF7A1
:107D8000FFF918B31A492046FEF7FAF900B319496A
:107D90002046FEF7F5F9E8B117492046FEF7F0F95D
:107DA000D0B116492046FEF7EBF9B8B11449204688
:107DB000FEF7E6F9A0B113492046FEF7E1F90028E5
:107DC00014BF0920082010BD0120FCE70220FAE7BB
:107DD0000320F8E70420F6E70520F4E70620F2E7A1
:107DE0000720F0E7FD080208070902080F0902084A
:107DF000180902081E090208250902082C090208B0
:107E0000340902083B09020810B51C4C0021204629
:107E100001F028FB1A4B04211860204601F032FBC8
:107E2000184B06211860204601F02CFB164B082148
:107E30001860204601F002FB144B0A2118802046EE
:107E400001F0FCFA124B0C211880204601F0F6FAE2
:107E5000104B0E211880204601F0F0FA0E4B102135
:107E60001880204601F0EAFA0C4B122118802046B7
:107E700001F0E4FA0A4B188010BD00BFF4050020A1
:107E800008060020100600200C060020F80500203F
:107E9000F60500203A050020380500208C0500205A
:107EA0008A05002038B50121344805F070FCFFF741
:107EB000ABFF3348012306224FF4E13105F082F98C
:107EC000304805F09FFA012805D02E4805F09EFAAB
:107ED0002D4805F031FB2D492D482E4C082205F088
:107EE00016FA2D492D48102205F022FA08222C49B5
:107EF0002C4805F02EFA08212B4805F06FFA0021D6
:107F00002A4805F059FA0121294805F033FA294891
:107F1000012105F041FAA4F10B05204605F03AFADB
:107F200038B9284605F0B5F942F2107008F0F4FCB3
:107F3000F3E72149214805F0E2F9214A21480123CC
:107F4000002105F00FFB012319461F4A1D4805F0CB
:107F500009FB1E4A1B4812680023194605F00CFB5A
:107F60000023012117484FF47A7205F005FBBDE8A4
:107F700038400121092005F013BC00BF7114002016
:107F8000201400200015002070140020300500206F
:107F9000DD140020E714002008000020DE1400207B
:107FA00018000020E1140020FD140020E914002036
:107FB000E6140020E81400202D930008DC140020B3
:107FC000D98B0008D91400208193000808060020EE
:107FD000704700000000000030B5037A03F07F0313
:107FE000043B85B0082B0FD8DFE803F01823050EFB
:107FF000080E100E2A00007805B030BDD0E900014F
:10800000012908BF0028F7D30020F5E7D0E90001D7
:10801000012908BF002828BF0020EDE700230068E1
:108020008DF808306946FFF771FD6846FFF7D4FF09
:10803000E2E7006800238DF8083069460830F2E76F
:10804000D0E900450022002320462946FEF742FDE4
:108050000028D1D006A3D3E9002320462946FEF705
:108060002FFD0028C8D020462946FEF785FDC3E72E
:108070000000E0FFFFFFEF411FB5037A03F07F032D
:10808000043B082B27D8DFE803F0151505260B263F
:10809000102621000078FEF795FE05B05DF804FB80
:1080A000D0E90001FEF7A0FEF7E7D0E90001FEF7F6
:1080B000A3FEF2E700680023694608308DF8083017
:1080C000FFF724FD6846FFF7D7FFE6E7D0E9000198
:1080D000FEF772FDE1E70020DFE70000000000008E
:1080E00030B5037A03F07F03043B85B0082B1AD820
:1080F000DFE803F01B260519081912192D00007876
:1081000005B030BDD0E90001002908BFB0F5803FBF
:1081100000D3002080B2F3E7D0E90001002908BFB6
:10812000B0F5803FF6D30020EAE7002300688DF821
:1081300008306946FFF7EAFC6846FFF7D1FFDFE742
:10814000006800238DF8083069460830F2E7D0E96E
:1081500000450022002320462946FEF7BBFC0028EC
:10816000CED007A3D3E9002320462946FEF7A8FC7A
:108170000028C5D020462946FEF7FEFCCAE700BF0E
:1081800000000000E0FFEF402DE9F84F05461746DC
:1081900032B902604FF6FF73AB802846BDE8F88F16
:1081A000B1F8009003F12C0649463046FFF790FAEB
:1081B000044608B33846FDF7EDFFD4F80CA0B4F838
:1081C0000A8083465046BAF1000F01D0FDF7E2FF66
:1081D000834509D100239B4511D0F95C1AF803208F
:1081E000914201D10133F6E741463046FFF770FA7C
:1081F000044608B1C146DDE700232B60CAE72C60C6
:10820000A5F80490A5F80680C7E737B5047A0546B7
:1082100014F02000134605D00A4668462946FFF7A9
:10822000B3FF009803B030BD437E6BB9D0E9043290
:1082300093423DBF5A1C02611B784FF0FF3323EA83
:10824000E373037601234376007E7047F8B50E4F43
:108250000446012600252046FFF7E6FF50B1A0F1B5
:108260000903DBB2172B0BD806FA03F33B4207D006
:108270006576F0E7237B002B14BF02200120F8BDB8
:10828000012323730020FAE71300800070B5054630
:108290004C1E002614F8010F48B12846FFF7C4FF12
:1082A00020B12378834203D16E76F3E7022070BDBC
:1082B0000320FCE708B5D0E9002102F13800FFF700
:1082C000A4FF08BD08B5FFF7F5FF10B1FFF7D4FE16
:1082D00008BD0020FCE7F8B50C46FFF7EBFF22686D
:1082E000034620B3017A01F07F010439082940D800
:1082F000DFE801F03F3F3C3F2E3F213F05001046A5
:10830000D3E90067FEF7F6F804460D4602460B4631
:1083100030463946FEF7CAFB68BB2B46224630463C
:108320003946FEF7E1FB002814BF02230123023B7C
:1083300058425841F8BDD3E90045D317944275EB34
:10834000030118DBA242AB41ACBF01230223EEE7DD
:10835000D3E90045D3179D4208BF94420BD3AB42EB
:1083600008BFA2422CBF01230223E0E71C780025AE
:10837000F0E70023DBE70423D9E708B5FFF79AFF0E
:1083800008B1FFF7ADFE08BD7FB50468456804F18C
:1083900038063DB394F8402053061FD122F07F02E7
:1083A0004FF6FF7342F0200284F840202387638752
:1083B00023462A4631466846FFF7E6FE009B5BB936
:1083C0002246314602A8FFF786FA029B23B11A7AA9
:1083D000DD6002F07F021A721D4603E012F02002F7
:1083E000E6D11546284604B070BD70B505460E4668
:1083F000FFF7CAFF2968044660B1FFF730FA237A15
:1084000023F07F0343F00C0323723046FEF784F819
:10841000C4E90001286810B1007980F0010070BD46
:1084200070B506460D46FFF7AFFF3168044658B1F8
:10843000FFF715FA237A23F07F0343F00803237232
:10844000AAB20023C4E90023306810B1007980F09B
:10845000010070BDF8B5054616460C468F18BC42A3
:1084600005D014F8011B2846FFF7DBFAF7E7AA6AE4
:108470003244AA62F8BD38B5054608460C46FDF7F9
:1084800089FE214602462846FFF7E4FF38BD2DE964
:10849000F04786B00DF11606074615461C46B24653
:1084A000284621460A220023FEF7D0FE303206F885
:1084B000012D284621460A220023FEF7C7FEA146C9
:1084C000A846B9F1000F08BFB8F10A0F05460C46DF
:1084D000E6D2AAEB060231463846FFF7BBFF06B0EC
:1084E000BDE8F08738B504460D46FFF79DFEA8426B
:1084F0004FF0000004BF6076012038BD7F2837B5FB
:108500000D46C1B204D82846FFF7E5FA03B030BDE6
:1085100001F03F01C0F38F12002361F07F011F2A99
:108520008DF800308DF801104FEA9013C0F38714D6
:108530000DD864F03F048DF802400DF1030414F8E7
:10854000011D0029E2D02846FFF7C5FAF7E7991187
:1085500004F03F0464F07F0411F47C7FC3F38912BC
:108560008DF80240C3F3871305D163F01F038DF824
:10857000033001ACE3E703F03F0363F07F038DF8C2
:108580000330931163F00F038DF804300DF10504EF
:10859000D5E700002DE9F8430746FFF745FE002424
:1085A00006467C7625463846FFF73EFE8642014663
:1085B0007D7656D010B90220BDE8F8835C284AD1F8
:1085C0003846FFF731FE0028F5D0752839D17D7681
:1085D0004FF004084FF000093846FFF725FE002849
:1085E000E9D040288ABF20F02003A0F13003373BB8
:1085F000DBB20F2B01D90320DEE708F1FF3843EA95
:10860000091318F0FF081FFA83F97D76E4D109F504
:1086100020539BB2B3F5806F02D2C9F30904C2E7BD
:1086200009F510539BB2B3F5806F3DBFC9F309093B
:1086300049EA842909F5803048463946FFF75EFF4C
:10864000B1E70B4B1A78002AD5D0904207D1597860
:108650000029D0D07D763846FFF73DFAA3E70233F4
:10866000F0E77B68002B14BF00200420A4E700BFC4
:108670004309020810B50446FFF7D3F9A36A03447F
:10868000A36210BD38B50C4B04469D786DB1DA7805
:108690008A4203F10203F8D15C212046FFF7EAFF8A
:1086A00029462046FFF7E6FF05E00029F9D10349F6
:1086B0002046FFF7E0FE38BD4309020854090208CE
:1086C00070B50C46222115460646FFF7D3FF254418
:1086D000AC4205D014F8011B3046FFF7D3FFF7E793
:1086E00022213046FFF7C6FF70BDF8B50D467B214D
:1086F0000446FFF7BFFF2D884FF6FF77BD4226D017
:10870000E06A29462C30FEF7E3FF2221C6680546C1
:108710002046FFF7AFFF013E16F8011F19B12046B2
:10872000FFF7B0FFF8E722212046FFF7A3FF3A2129
:108730002046FFF79FFF2846214600F011F86D897B
:10874000BD4204D02C212046FFF794FFD6E72046F7
:108750007D21FFF78FFFA06AF8BD00000000000038
:108760002DE9F04F037A03F07F030C2B87B0054609
:108770000C4610D8022B14D9033B092B11D8DFE883
:1087800013F0910180018D01C0011000BD011000A6
:10879000A90110001200202B00F06C81402B00F08A
:1087A0004981C749B0E1D0E900984A464346484666
:1087B0004146FEF771F90028F3D000220023484615
:1087C0004146FEF769F968B94A464346484641467C
:1087D000FDF744FD02460B4648464146FEF75CF96C
:1087E0000028DED10022002348464146FEF75EF90C
:1087F00028B12D212046FFF73DFF08F10048ACA32A
:10880000D3E9002348464146FEF764F900285AD0D0
:10881000AC4FDFF8B4B208254FF0000A4FF4807671
:1088200029463846FEF764FF02460B464846414655
:10883000FEF750F970B129465846FEF759FF024637
:108840000B4648464146FDF7BFFEB2448146884686
:108850000FFA8AFA013D4FEA6606E1D200220023B0
:1088600048464146FEF740F990B393A3D3E900236D
:1088700048464146FEF724F950B30027A5EB070B05
:108880001BF0800F24D190485946FEF731FF8F4BE3
:108890000022FDF799FE4A464346FEF725F978B1D6
:1088A00088485946FEF724FF02460B464846414693
:1088B000FDF78AFEAAEB060A814688460FFA8AFA75
:1088C00076100137DAE74FF4807608258246C5E74F
:1088D00041464846FEF750F97D4F064602460923B9
:1088E0000A215DB2092A03F1FF33DBB204D9B7FBD9
:1088F000F1F7B2FBF1F2F4E73046FDF7EBFD02468B
:108900000B4648464146FDF7A7FC80463846894657
:10891000FDF7E0FD02460B4640464946FDF754FE92
:1089200080468946FEF728F98346FDF7D3FD0246C7
:108930000B4640464946FDF78FFC02460B46FDF7C5
:108940008DFCFEF719F900EB0B0847450CD80136F2
:10895000BAF1000F14D0092E12D90AF1010A0FFA48
:108960008AFA4FF0000801260A21B8FBF1F301FB57
:10897000138242B9002D06DD013D98466DB2F4E741
:108980004FF00008F0E70DF116010A20B6FBF0F2F7
:1089900000FB1263303301F8013D3346092B1646C4
:1089A000F4D80DF11606721A2046FFF753FDEDB10B
:1089B0000DF10F012B460A20013B5BB25A1C09D076
:1089C000B8FBF0F200FB128808F1300801F80189C9
:1089D0009046F1E7EAB204AB991A2E2001F8010C97
:1089E000D143194401322046FFF734FDBAF1000F9C
:1089F0003ED065212046FFF73DFEBAF1000F1FFA79
:108A00008AF505DA2D212046FFF734FE6D42ADB21E
:108A100031460A20B5FBF0F200FB1253303301F867
:108A2000013D2B46092B95B2F4D8721A2046FFF768
:108A300011FD1DE05B212046FFF71CFE2D884FF63F
:108A4000FF76B54210D0E06A29462C30FEF740FE92
:108A500005462146FFF784FE6D89B54204D02C21DE
:108A60002046FFF707FEECE75D212046FFF702FEF8
:108A7000A06A03E001462046FFF737FE07B0BDE8D5
:108A8000F08F056845B12846FDF784FB024629466C
:108A90002046FFF715FEEBE72A46F8E70168CA888B
:108AA0000831F5E70168CA880831BFE7AFF30080F5
:108AB00000000000D0126341F168E388B5F8E43E9D
:108AC0005B090208000A0208B809020800002440F5
:108AD00000CA9A3BD0E90067002E77F100030ADA5A
:108AE0002D212046FFF7C6FD724267EB4703204663
:108AF000FFF7CDFCBCE732463B46F8E7D0E9002360
:108B0000F5E7037823B103492046FFF7B4FCAFE74C
:108B10000149F9E760090208650902082DE9F043F7
:108B2000B7B06B46002783E8030002AD1046394614
:108B300002920B9704F0F3FD0FCD0CAC0FC40FCDD8
:108B40000FC495E8030084E803000CAE0FCE16AD09
:108B5000DDE900890FC50FCE0FC594E8030085E855
:108B6000030016AE0FCE20AC0FC40FCE0FC495E895
:108B7000030084E8030020AE0FCE2AAD0FC50FCE50
:108B80000FC594E8030085E8030020A83497FEF79A
:108B90003AFF16A8CDF8D490FEF735FFB8F1000FD4
:108BA00011D02AA94046FFF7DBFD04462AA8FEF7AC
:108BB0002AFF0CA8FEF727FF02A8FEF724FF204695
:108BC00037B0BDE8F08303492AA8FFF754FC349C72
:108BD000ECE700BF5B0902082DE9F043404D414C32
:108BE0002988414E414FDFF824818DB009A80994AE
:108BF0000A96FFF715FC6988099409A80A97FFF7F8
:108C00000FFC69683A4B0A9309A80994FFF7EDFB3A
:108C100009A895F808900994CDF82880FFF7B4FBCF
:108C20000999054660B1FEF71AFE2B7A23F07F03FF
:108C300043F008032B725FFA89F20023C5E9002391
:108C40002C4B2D480A930994FEF72DFD014609A8E7
:108C5000FFF7CBFB642302A905A80293CDE90548E1
:108C6000FFF739FBCDE9074707AFFA23054603A90C
:108C700038460393FFF72FFB0543EDB242F228334A
:108C800004A909A8CDE909460493FFF724FB05B917
:108C900010B11A4804F050FC194D1A4909A804F003
:108CA0002CFDCDE9075409AA97E80300FFF736FF2A
:108CB000A5F13800FEF7C1FD002384F84030012300
:108CC000CDE90033099A9DF82C100F48812304F058
:108CD000F1FA09A804F0CBFC0DB0BDE8F08300BFA9
:108CE000FC050020400500206B0902086F090208FE
:108CF000730902087C090208900500207014002006
:108D00007805002053090208DC14002078090208C5
:108D100070B588B01A4A06921A4A1B4B12781B4D3E
:108D20001B4E059605A8002A08BF1D46FFF72CFB21
:108D30000599044640B1FEF792FD237A256023F0A1
:108D40007F0343F004032372124905A804F0D5FC05
:108D5000114B05AA31461846CDE90336FFF7DEFE72
:108D600001230A22CDE900329DF81C10059A0B4818
:108D7000812304F09FFA05A804F079FC08B070BDC7
:108D80008A0902088805002086090208830902086A
:108D9000400500205309020878050020DC1400205B
:108DA0000C4B0D4A1B8810B583421478ACBF0021D0
:108DB00001218C420CD0834211704FF00900B4BFE6
:108DC0000121002104F003FDBDE81040FFF7A0BF22
:108DD00010BD00BF38050020880500202F280CD9C1
:108DE00039280CD95E2806D97A2808D95A288CBF88
:108DF0000020012070474028F8D80020704701204B
:108E0000704770B50446FEF721FE2046FFF70CFAC6
:108E100027281ED022281CD02046FFF705FA054639
:108E2000FFF7DCFF98B10026294620466676FEF75C
:108E300052FE2046FFF7F8F90546FFF7CFFF00285E
:108E4000F2D16368002B14BF0020042000E003204F
:108E500070BD2046FFF79EFBFAE72DE9F743DFB22E
:108E600004468946002F69D000234376FFF7EEF9C8
:108E70000546B0B97D212046FFF734FB88B9013F94
:108E80002046FFF7BEFF00284DD12046FFF7DEF950
:108E90000646002854D13A212046FFF723FB20B98B
:108EA0000325284603B0BDE8F083D4E9013213441A
:108EB00049461E726268E36908326846FFF764F942
:108EC000009E96BB2046FEF7D7FDE26980464946E4
:108ED0006846FEF700FD009E0EB90425E1E7337AEF
:108EE00008F1080063F07F033372F0603B464FF0F7
:108EF00000023146204600F025F8A0B92046FFF7D1
:108F0000A5F980B97D212046FFF7ECFA0028C8D1E9
:108F10002C212046FFF7E6FA0028C1D02046FFF7B3
:108F200095F90028ACD00546BBE7E1693046FEF76D
:108F300096FC337A23F07F033372D7E70525B0E739
:108F40000546AEE72DE9F34705460E461F46FFF7F7
:108F50007DF9044600287DD12846FFF765F966288B
:108F600000F0A08019D8272803D05B283CD0222805
:108F70001AD12846FEF76AFD2846FFF70BFB044688
:108F8000002867D12846FEF777FD337A306023F05A
:108F90007F0343F0050333725CE0742875D07B28AF
:108FA00060D06E2800F087802846FFF73DF905F174
:108FB000200805F15F0A47464FF00009A7EB0803B8
:108FC0002F28DBB279D9392803D900F0DF02452AEE
:108FD0007AD1BA4500F0848085F8199007F8010B22
:108FE0002846FFF721F9E9E7337A23F07F0343F0BE
:108FF00040033372FFB24FF6FF73338073806FB359
:109000006C762846FFF722F9044618BB5D212846F6
:10901000FFF768FAF0B9013F3146EA696846FEF7A2
:109020005AFC0099E1B13B464FF000022846FFF799
:1090300089FF40BB2846FFF709F920BB5D21284680
:10904000FFF750FA30B92C212846FFF74BFA0028D9
:10905000E2D10324204602B0BDE8F0870524F9E7F9
:109060000424F7E7337A23F07F0343F020033372BD
:109070004FF6FF73338073804FF000023B4631465A
:109080002846FFF7EAFE0446E4E7337A154923F061
:109090007F0343F006033372012333702846FFF742
:1090A000F5F8F0E7337A1049347023F07F0343F08A
:1090B00006033372F2E70D49F0E72B2889D0A0F1BF
:1090C0002D02D2B2012A84D91D44002385F8203014
:1090D00031464046FEF71AFD002808BF0324B9E7D1
:1090E0003F23F1E760090208650902085B090208ED
:1090F0002DE9F0437E4C99B0461805462046FEF710
:109100009CFB0023CDE9004384F8403002938DF8A6
:109110000C308DF819304FF000024FF00A0304F1C3
:1091200038016846CDE904560794FFF70BFF064661
:1091300040B99DF818602EB194F8406016F008060A
:1091400018BF0326019818B1009B1968FEF7F4FABE
:10915000258E2768B5B1D4F82C903B6805F10055F1
:10916000013D09EBC5089B68B8F80220D8F8041047
:1091700012013846984728B1B8F80230C8F8040000
:1091800029F83530E16A5B4B99420BD0228E638E11
:10919000934207D03B68D2009B6838469847238E9D
:1091A000E0626386002E41D1534D514A294602F1B7
:1091B0003800FFF72AF8002838D06846CDE9004586
:1091C000FFF778F838B1037A03F07F03042B0DD052
:1091D000052B0DD03046FEF7C5FD082826D8DFE860
:1091E00000F00A2836414F5A65707B000068F2E7AC
:1091F00000680830EFE7414B009468460193FFF7A1
:1092000059F8014610B1FEF7E7FE01463C4C3D48D7
:109210002160002200F0F2F800213B4804F0B6F98A
:10922000002322683848194604F0A6F919B0BDE8B1
:10923000F083324B019368460094FFF743F8334BB9
:109240000146186004222F4800F0E8F8EEE72B4BA7
:10925000019368460094FFF735F82D4B01461860DE
:109260000622F0E7254B019368460094FFF785F846
:10927000284B014618800822224800F0AFF8D5E7B5
:109280001E4B019368460094FFF777F8224B014686
:1092900018800A22F0E7194B019368460094FFF703
:1092A0006CF81E4B014618800C22E5E7134B019326
:1092B00068460094FFF761F8194B014618800E22AA
:1092C000DAE70E4B019368460094FFF756F8154B0A
:1092D000014618801022CFE7084B0193684600949E
:1092E000FFF74BF8104B014618801222C4E700BF6D
:1092F000400500204C050020930902089909020846
:1093000008060020F4050020D914002010060020D3
:109310000C060020F8050020F60500203A05002084
:10932000380500208C0500208A050020017A40685D
:10933000FFF7DEBE0D480E4908B500F10C020D4BDB
:10934000C2624FF480220360026300234FF6FF7273
:1093500003718360828680F84030074A00F00CFC7D
:10936000BDE808400548FEF79DB900BF4005002054
:10937000D3770008040000200000002090050020A2
:1093800013B5124C1248522301220DF107018DF83A
:10939000073003F0FAFE00230D4823600C2221461B
:1093A0006360A36004F052F90C280BD1094A2068CD
:1093B0006168134603C3A06818601088FFF7F0FCCB
:1093C00002B010BD044804F0B7F8F9E72405002006
:1093D00020140020FC0500207014002007B50B4667
:1093E000ADF804301146022301AA034804F0B0F896
:1093F00003B05DF804FB00BFD714002007B50B468F
:1094000001930423114604480DEB030204F0A0F875
:1094100003B05DF804FB00BFD714002007B5042398
:10942000104601910DEB03020146034804F090F849
:1094300003B05DF804FB00BFD714002007B500237C
:10944000ADF8043001AA0223054804F077F89DF82E
:1094500005009DF8043043EA002003B05DF804FBEA
:10946000D714002007B50023019304230DEB03025A
:10947000034804F063F8019803B05DF804FB00BFF3
:10948000D714002007B50023019304230DEB03023A
:10949000034804F053F8019803B05DF804FB00BFE3
:1094A000D714002002F0FCBF02F0FFBF704700009D
:1094B00070B5002386B0CDE904334FF0B0420F4DB4
:1094C000D16C41F00201D164D26C039302F002022C
:1094D0004FF48056009201A92846CDE90163009A15
:1094E00009F0C8FC3146284609F0E4FD314604463F
:1094F000284609F06BFD204606B070BD0004004808
:109500004FF0B04382B0DA6C0243DA64DB6C18408F
:109510000190019B02B070472DE9F04186B0142202
:10952000002101A800F070FB0220FFF7E9FF144DB5
:10953000144F0420FFF7E4FF4FF48076012300244A
:10954000CDE9016301A903232846CDE903434FF484
:10955000005809F08FFC01A93846CDF8048009F0C5
:1095600089FC22464146384609F0AAFD2846224693
:10957000314609F0A5FD204606B0BDE8F08100BFE8
:109580000004004800080048032810B50ED8012840
:1095900010D868B902460B484FF4807109F090FD6D
:1095A000002209484FF4005109F08AFD002010BD47
:1095B0000122F0E7002203484FF4807109F080FD9A
:1095C0000122EEE70004004800080048022070472E
:1095D000002070470120704710B59AB04822002142
:1095E00008A800F011FB1822002102A800F00CFBD3
:1095F0000AF022FC4FF0B0420024D2F8903023F061
:109600001803C2F89030D2F8003423F4C06343F456
:109610000073C2F80034D2F80034119403F4C0632C
:1096200001934FF48072019B0C922E2340220893E9
:1096300081230B930D920123B02208A8CDE90E34AB
:109640001093129213940AF049FD08B103F050F9F7
:109650004F23022102A8CDE90234CDE90444CDE92B
:1096600006440AF0DBFF08B103F042F91AB010BD5E
:1096700013B50378082B11D8DFE803F012828710A6
:109680008E8E051092000479204606F0E3FA2046FB
:1096900006F0BEFA0021204606F0E4FA02B010BD42
:1096A000002006F0D7FA012839D1012006F0D2FABD
:1096B000012804D0012007F0EBFC00283DDC02204B
:1096C00006F0C8FA0128E9D0022007F0E1FC0028E2
:1096D000E4DD012201A9022007F0E2FB022006F0EE
:1096E000B9FA0028F0D1022007F0B0FC00283FD1E1
:1096F0009DF80410022006F0FFF9E5E7012201A918
:10970000002007F0CDFB002006F0A4FA044630B993
:1097100007F09CFC48B99DF8041006F0EDF9002014
:1097200007F0B6FC0028E9DCBFE70128F7D19DF877
:109730000410204607F0FCFBF1E7012201A91046C6
:1097400007F0AEFB012006F085FA0028B2D1012017
:1097500007F07CFC28B99DF80410012006F0CCF934
:10976000A8E70128A6D19DF8041007F0E1FBA1E7C6
:109770000128A9D19DF80410022007F0D9FBA3E726
:109780000FF018FF04F0A4FD88E7074B1B68002BBF
:1097900084D04068984781E7406807F02BFD7DE75B
:1097A000406807F005FA79E7304F002030B5284BC4
:1097B000284A9A6085B007F051FDFFF70DFF4FF082
:1097C000B0430B209A6C42F004029A649A6C02F047
:1097D00004020392039A9A6C42F001029A649B6C11
:1097E000002203F0010311460293029B08F040F9A6
:1097F0000B2008F06FF907F0DFFC07F065F806F0C2
:10980000DBFA002401460546234603220120CDE968
:10981000004407F087FA2346032229460220CDE9B7
:10982000004407F07FFA06F0E5FA05F0C5FAE5B264
:10983000284606F00FFA10B9284606F0E9F9013477
:10984000032CF4D105B0BDE8304007F09BBC00BF4D
:1098500000ED00E00060000807F0A2BCF7B5FFF7DC
:10986000A5FF4FF0B0432E4EDA6C2E4C42F00202B0
:10987000DA64DB6C03F002030193019B05F0D0FE78
:10988000294B341B1427474300251C44BD4223D3D6
:1098900002F0CEF8FFF70CFE98B3244803F0A1FFC6
:1098A000234B24481A68244B196803F09AFF234875
:1098B00007F0BAFA04F046F9012824D0022824D08F
:1098C00010B91F4807F0B0FA1E4C07F069FC237866
:1098D000EBB902F0AFF8F8E76A460421601907F027
:1098E00033F869463246042312F801CB11F8010B14
:1098F000844518BF02F8010C013BF5D1043504364C
:10990000C4E71148CAE71148DCE71148DAE706F076
:10991000C9F90028D9D0002007F0CEF9D5E700BF5B
:109920002003002000000020101D0208480A020841
:10993000240000205E0A0208340000206E0A02089B
:10994000820A020814060020530A02088E0A02083E
:10995000990A0208054808B5082303600BF02CFAA1
:1099600018B1BDE8084002F0C3BF08BD3048002070
:109970004FF0B04307B55A6E42F001025A665B6E73
:10998000002203F00103019311463220019B08F0ED
:109990006FF8322003B05DF804EB08F09BB80000CC
:1099A000024B9868024BC043186070470028004083
:1099B00018060020014B1868704700BF18060020E9
:1099C000034B044A9B681068DB43181A704700BFBA
:1099D0000028004018060020034B187810B1034BF4
:1099E0009868C043704700BF15060020002800405B
:1099F0000320704708B501464FF47A720023C00374
:109A0000490CFDF723FC08BD4FF47A72A0FB02233A
:109A1000D00B40EA4340704710B5074B074C01227A
:109A2000DA654FF4807120460AF0F6FE4FF0FF33FE
:109A30002363002010BD00BF00280040184A00200A
:109A40000246002101480BF0FCB800BF184A002074
:109A50000246012101480BF0F4B800BF184A00206B
:109A600010B58CB02C220021044601A800F0CCF8DF
:109A7000FFF7D2FF0C4B18680023044408930693A9
:109A80004FF00053E4430793084802944FF4807367
:109A9000012201A90B930AF0D5FF08B102F028FFBB
:109AA00000200CB010BD00BF18060020184A00208E
:109AB0000C4B70B59C68064602210B480BF0C8F8A9
:109AC000E44300221219C2F30E044FF47A71A4FB8E
:109AD000014540F10003E40BD00B348040EA4340E1
:109AE00070BD00BF00280040184A00200148002136
:109AF0000BF0AEB8184A0020014801210BF0A8B8BD
:109B0000184A0020F8B5114E3578E5B9104C2A46B0
:109B100029464FF0FF372846276302F039FCFFF74C
:109B20007BFF4FF4807120460AF076FE20462763C3
:109B30000BF032F82A46022120460BF082F8FFF79C
:109B40002FFF012333700020F8BD00BF1506002051
:109B5000184A00200EF0EEBA10B5064C022120463D
:109B60000BF076F80221421C2046BDE810400BF0B5
:109B700068B800BF184A00200B460146184600F09E
:109B800001B8000010B504460448134620B10A4647
:109B900002202146AFF3008010BD00BF000000008E
:109BA00070B50D4D0D4C641BA4100026A64209D1C2
:109BB0000B4D0C4C16F068FE641BA4100026A64248
:109BC00005D170BD55F8043B98470136EEE755F8CE
:109BD000043B98470136F2E7F81C0208F81C02081B
:109BE000F81C0208081D0208024B0146186800F024
:109BF00061B800BF38000020024B0146186800F031
:109C00000BB800BF3800002002440346934200D145
:109C1000704703F8011BF9E738B50546002945D020
:109C200051F8043C0C1F002BB8BFE41801F080FB76
:109C30001F4A1368104633B9636014602846BDE8B4
:109C4000384001F07BBBA3420BD9216862189342D4
:109C500004BF1A685B68636004BF52182260046026
:109C6000ECE71A465B680BB1A342FAD911685018A9
:109C7000A0420BD120680144501883421160DDD10D
:109C800018685B68536001441160D7E702D90C2360
:109C90002B60D3E7206821188B4204BF19685B68EA
:109CA000636004BF091821605460C7E738BD00BF76
:109CB0001C060020F8B5CD1C25F0030508350C2D39
:109CC00038BF0C25002D064601DBA94203D90C2321
:109CD00033600020F8BD01F02BFB21490A681446CF
:109CE0009CB9204F3B6823B92146304600F0A0FCC8
:109CF00038602946304600F09BFC431C23D10C23DE
:109D00003360304601F01AFBE3E723685B1B17D48E
:109D10000B2B03D923601C44256004E06368A24236
:109D20000CBF0B605360304601F008FB04F10B00E0
:109D3000231D20F00700C21ACCD01B1AA350C9E77C
:109D400022466468CCE7C41C24F00304A042E3D09C
:109D5000211A304600F06CFC0130DDD1CFE700BFA6
:109D60001C060020200600202DE9F04788B0002BBB
:109D70001F461446B8BF03F10043129A109DDDF848
:109D80004CA0B6BF1F4600232D231370149B23F055
:109D90002008B8F1460F05D0B8F1450F00D10135C4
:109DA000022300E0032307AA049206AACDE902A237
:109DB000CDE9003522463B4600F0D6FCB8F1470F0E
:109DC000064602D1119BDB0722D5B8F1460F06EB00
:109DD000050910D13378302B0AD100220023204608
:109DE0003946FCF759FE18B9C5F10105CAF800500B
:109DF000DAF8003099440022002320463946FCF767
:109E00004BFE08B1CDF81C903022079B4B4507D381
:109E1000079B159A9B1B3046136008B0BDE8F0877E
:109E2000591C07911A70F0E7F7B503460029B8BF2F
:109E3000494203F8022BB4BF2D222B22092942707C
:109E40002ADD0DF10704A4460A27A6460A4691FB1F
:109E5000F7F607FB16153035632A04F1FF340EF8C8
:109E6000015C3146F1DC3031AEF1020504F8011C31
:109E7000441C294661450AD30DF10902A2EB0E02EA
:109E8000654588BF00221344181A03B0F0BD11F8CD
:109E9000012B04F8012FEDE7302330318370C170BE
:109EA000031DF1E72DE9F04F91B00C46DDF8688015
:109EB00016461F46054601F029FA0368099318461D
:109EC000FCF768F900230E93D8F800300A900733A6
:109ED00023F0070303F1080294F81890D4F800B0B7
:109EE000C8F80020D3E90023C4E91223D4E9128A78
:109EF0002AF000430B930B999C4B4FF0FF324046E6
:109F0000FCF7FCFD70BB994B0B994FF0FF324046BC
:109F1000FCF7D6FD30BB0022002340465146FCF73B
:109F2000C5FD10B12D2384F84330914B9148B9F110
:109F3000470F94BF98468046032323612BF0040308
:109F400023604FF0000A009733460FAA21462846A7
:109F500000F0D2F9013040F08F804FF0FF3011B0A7
:109F6000BDE8F08F4246534640465146FCF7C6FDD9
:109F700040B1BAF1000FBCBF2D2384F843307E48B6
:109F80007E4BD4E763685A1C09F0DF0142D10623F7
:109F90006360002206920EAACDE904920DAA4BF44A
:109FA000806303920DF13302CDE9013223606368CF
:109FB00000934246534628460B91FFF7D5FE0B9976
:109FC000472980460D9908D1C81C02DB6368994275
:109FD00040DDA9F102095FFA89F9B9F1650F1FD8CF
:109FE00001394A4604F150000D91FFF71DFF0E9A0A
:109FF0001318012A8246236102DC2268D20701D5A8
:10A00000013323619DF83330002B9CD02D2384F83D
:10A01000433098E74729BCD1002BBAD10123B7E7D9
:10A02000B9F1660F18D1002963680BDD216113B9FE
:10A030002268D00702D501330B442361A1654FF09C
:10A04000000ADFE713B92268D20701D50233F4E72B
:10A050000123F2E74FF067090E9B994205DB236865
:10A060002161D807EAD54B1CE7E70029D4BFC1F12D
:10A07000020201221344E0E723685A0507D423694A
:10A08000424631462846B84701302BD165E7B9F141
:10A09000650F40F2DC80D4E9120100220023FCF7B6
:10A0A000FBFC002833D0364A012331462846B84706
:10A0B00001303FF452AFDDE90D239A4202DB236801
:10A0C000D8070FD5DDE9092331462846B8470130C6
:10A0D0003FF443AF4FF0000804F11A090E9B013B17
:10A0E000434509DC23689B0700F10181E0680F9B71
:10A0F0009842B8BF184632E701234A4631462846FF
:10A10000B84701303FF429AF08F10108E6E70D9B9D
:10A11000002B37DC1A4A012331462846B847013064
:10A120003FF41BAFDDE90D23134302D12368D907A8
:10A13000D8D5DDE9092331462846B84701303FF438
:10A140000CAF4FF0000904F11A0A0D9B5B424B451E
:10A1500001DC0E9B94E70123524631462846B8475E
:10A1600001303FF4FAAE09F10109EEE7FFFFEF7F9E
:10A17000D90B0208DD0B0208E50B0208E10B02080F
:10A18000631902080E9AA36D9A42A8BF1A46002AC4
:10A19000914637DC4FF0000B29EAE97904F11A0205
:10A1A000D4F858A0AAEB09035B4533DCDDE90D23A5
:10A1B0009A423BDB2368DA0738D40E9A0D99A2EB5A
:10A1C0000A03A2EB01099945A8BF9946B9F1000F0E
:10A1D00034DC4FF0000829EAE97904F11A0ADDE9D4
:10A1E0000D239B1AA3EB090343457FF77BAF0123A4
:10A1F000524631462846B84701303FF4AEAE08F12A
:10A200000108ECE71346314642462846B84701307C
:10A21000C0D1A2E60123314628460B92B84701304F
:10A220003FF49BAE0B9A0BF1010BB9E7DDE9092373
:10A2300031462846B8470130BFD18EE64B4608EB81
:10A240000A0231462846B8470130C2D185E60E9A47
:10A25000012A01DCDB0737D5012342463146284677
:10A26000B84701303FF479AEDDE90923314628468D
:10A27000B84701303FF471AED4E912010022002347
:10A28000FCF70AFCD8B90E9B08F10102013B3146EC
:10A290002846B84701300ED15FE601234A463146D1
:10A2A0002846B84701303FF458AE08F101080E9B2C
:10A2B000013B4345F1DC534604F15002E1E64FF027
:10A2C000000804F11A09F2E701234246DFE70123FF
:10A2D0004A4631462846B84701303FF43EAE08F1C1
:10A2E0000108E3680F995B1A4345F0DCFEE64FF086
:10A2F000000804F11909F4E72DE9F04716469946DC
:10A300008A680B69DDF820809342B8BF134633603A
:10A3100091F8432007460C460AB1013333602368A5
:10A32000990642BF336802333360256815F006058D
:10A3300006D104F1190AE36832689B1AAB4226DCA5
:10A3400094F84320131E226818BF012392062BD4D1
:10A3500004F1430249463846C04701301ED0236805
:10A36000E568326803F00603042B08BFAD1AA36842
:10A3700022690CBF25EAE57500259342C4BF9B1AEC
:10A38000ED1800261A34B5421AD1002008E0012346
:10A39000524649463846C047013003D14FF0FF309E
:10A3A000BDE8F0870135C6E7E1185A1C302081F876
:10A3B0004300224494F8451082F843100233C7E763
:10A3C0000123224649463846C0470130E6D00136CF
:10A3D000D9E700002DE9FF470C469146277E0C99EE
:10A3E000782F80469A4604F1430207D8622F0AD894
:10A3F000002F00F0D880582F00F0A38004F142060F
:10A4000084F842703AE0A7F16303152BF6D801A057
:10A4100050F823F06DA4000881A40008FDA30008F3
:10A42000FDA30008FDA30008FDA3000881A4000807
:10A43000FDA30008FDA30008FDA30008FDA300087C
:10A440008DA50008B1A400086FA50008FDA30008B1
:10A45000FDA30008AFA50008FDA30008B1A40008F3
:10A46000FDA30008FDA3000877A500080B681A1DCE
:10A470001B680A6004F1420684F842300123A3E01D
:10A48000256808682E0600F104030AD505680B60EC
:10A49000002D03DA2D236D4284F843305E480A23F1
:10A4A00019E015F0400F05680B6018BF2DB2EFE7FB
:10A4B0000B682568181D0860280601D51D6802E094
:10A4C0006906FBD51D8854486F2F0CBF08230A234B
:10A4D000002184F843106668A660002EA2BF2168A0
:10A4E00021F0040121600DB9002E4DD01646B5FBB8
:10A4F000F3F103FB1157C75D06F8017D2F46BB4200
:10A500000D46F4D9082B0BD12368DF0708D5236942
:10A5100061689942DEBF302306F8013C06F1FF3640
:10A52000921B2261CDF800A04B4603AA214640466B
:10A53000FFF7E2FE01304CD14FF0FF3004B0BDE830
:10A54000F087354884F8457023680E681F0656F872
:10A55000045B0E6014D5D90744BF43F02003236089
:10A560001DB9236823F0200323601023B0E723687C
:10A5700043F0200323607823284884F84530E3E73C
:10A580005E0648BFADB2E6E71646BBE70B68266835
:10A5900060691D1D0D6035061B6801D5186002E05D
:10A5A0007106FBD51880002323611646BAE70B68B5
:10A5B0001A1D0A601E68626800213046FBF7F8FD2C
:10A5C00008B1801B606063682361002384F8433016
:10A5D000A8E72369324649464046D0470130ABD010
:10A5E00023689B0713D4E068039B9842B8BF1846C2
:10A5F000A4E70123324649464046D04701309BD06C
:10A600000135E36803995B1AAB42F2DCEBE7002506
:10A6100004F11906F5E700BFE90B0208FA0B02087E
:10A62000024B0A460146186801F0A5B9380000201F
:10A6300038B5064D0023044608462B6001F0EAF9C0
:10A64000431C02D12B6803B1236038BD3C48002075
:10A650002DE9F74F03690C69A3420746C0F28180D8
:10A66000013C01F1140800F1140505EB840301938A
:10A6700058F8243055F8242001339A424FEA840BCD
:10A6800008EB8409B2FBF3F631D34FF0000E4046DD
:10A69000AC46F24650F8042B93B206FB03E34FEAB4
:10A6A000134E9BB2AAEB0303120CDCF800A006FBCE
:10A6B00002E213FA8AF34FEA124E1FFA82FADCF82A
:10A6C0000020CAEB124202EB23429BB243EA024350
:10A6D00081454CF8043B4FEA224ADBD255F80B3057
:10A6E0002BB9019B043B9D421A462ED33C61384650
:10A6F00001F053F8002824DB013628464FF0000C07
:10A7000058F8042BD0F800E093B2ACEB0303120C22
:10A7100013FA8EF3C2EB1E4202EB23429BB243EAD2
:10A720000243C14540F8043B4FEA224CE8D255F8B9
:10A73000242005EB840322B9043B9D421A460AD328
:10A740003C61304603B0BDE8F08F1268043B002A3C
:10A75000CCD1013CC7E71268043B002AF0D1013C90
:10A76000EBE70020EEE700002DE9F04F446A99B0D6
:10A7700016461F46CDE90467DDF8948005463CB9CE
:10A780001020FFF731FAC0E9014468620460C46038
:10A790006B6A196851B15A684A60012393408B6013
:10A7A000284600F005FE6B6A00221A603B1EB9BF06
:10A7B00023F0004305930023C8F80030DDF814901F
:10A7C000A74BBCBF0122C8F8002033EA090319D106
:10A7D000249A42F20F731360C9F31303334300F05A
:10A7E0006D85269B53B99F4B23E09F4B0393083302
:10A7F000269A1360039819B0BDE8F08F994B039324
:10A800000333F5E7DDE90434CDE90C34DDE90C016F
:10A8100000220023FCF740F9804660B1249A01230E
:10A820001360269B002B00F04685904B269A136000
:10A83000013B0393DEE716AB019317AB0093284669
:10A84000DDE90C2301F03AF8C9F30A548346002CE1
:10A850007ED00D9BCDF84C80C3F31303DDE90C01D2
:10A8600043F07F5141F44011A4F2FF34804B0022A9
:10A87000FBF7F2FC74A3D3E90023FBF7A5FE74A356
:10A88000D3E90023FBF7EAFC064620460F46FBF718
:10A8900031FE71A3D3E90023FBF796FE02460B4677
:10A8A00030463946FBF7DAFC06460F46FCF73CF922
:10A8B00000228246002330463946FCF7F7F848B1BB
:10A8C0005046FBF717FE32463B46FCF7E5F808B961
:10A8D0000AF1FF3ABAF1160F57D8664B03EBCA03D9
:10A8E000D3E90023DDE90C01FCF7E0F800284ED0A5
:10A8F0000AF1FF3A00230F93169B1C1B631E09935A
:10A9000045BFC4F101030693002300234CBF099304
:10A910000693BAF1000F3CDB099BCDF838A05344F5
:10A92000099300230A93229B092B00F2B580052B83
:10A93000C4BF043B2293229BA3F10203CCBF00249B
:10A940000124032B00F2B480DFE803F02D987AA4F1
:10A95000DDE916431C4404F23243202BC3BFC3F18C
:10A96000400304F2124009FA03F3C3F12003C6BF07
:10A9700026FA00F0184306FA03F0FBF7ABFD0123BB
:10A98000A1F1F871013C139370E70123B3E70F9035
:10A99000B2E7069BA3EB0A030693CAF100030A93EE
:10A9A00000230E93BFE700230B93239B002B00F3A0
:10A9B00082804FF00109CDF820904B46CDF88C9065
:10A9C0006E6A00227260042202F1140098427168DB
:10A9D00077D9284600F0B8FC6B6A30601B68039397
:10A9E000089B0E2B00F2EE80002C00F0EB80BAF1F9
:10A9F000000F7ADD1F4A0AF00F0302EBC303D3E90D
:10AA000000341AF4807FCDE910344FEA2A145CD068
:10AA1000194BDDE90C01D3E90823FBF7FFFECDE973
:10AA2000040104F00F040327134E002C4FD1DDE97D
:10AA30001023DDE90401FBF7F1FECDE904016EE02E
:10AA40000123B1E7AFF3008061436F63A787D23F73
:10AA5000B3C8608B288AC63FFB799F501344D33F0D
:10AA60000000F07F140C02080B0C020864190208A5
:10AA70000000F83F400C0208180C020800230B935A
:10AA8000239B0AEB030909F10103012B0893B8BFCB
:10AA9000012395E70123F2E70124002322930B947D
:10AAA0004FF0FF390022CDF820901223239287E740
:10AAB00001230B93F4E7DDF88C90CDF820904B4602
:10AAC0007EE70131716052007EE70227ACE7E107C3
:10AAD00008D5DDE91001D6E90023FBF775FDCDE9C6
:10AAE00010010137641008369FE700F0A580CAF115
:10AAF0000004A44BA44E04F00F0203EBC203D3E9FD
:10AB00000023DDE90C01FBF75FFDCDE90401241111
:10AB100000230227002C40F08480002B8DD10F9B56
:10AB2000002B00F08B80DDE90434CDE91034DDE941
:10AB30001001964B0022FBF7B9FF00287ED0089B3E
:10AB4000002B7BD0B9F1000F38DDDDE91001904B0F
:10AB50000022FBF739FDCDE904010AF1FF38013786
:10AB60004C463846FBF7C6FCDDE90423FBF72CFD19
:10AB7000884B0022FBF772FBA1F15076CDE9100162
:10AB80001196002C5DD1DDE90401834B0022FBF717
:10AB900063FB02460B46CDE90423109A3346FBF7CC
:10ABA000A3FF002840F09782DDE90401109A06F126
:10ABB0000043FBF77BFF002840F08B82DDE90C347B
:10ABC000CDE90434179B002BC0F25181BAF10E0F6E
:10ABD00000F34D816B4B03EBCA03D3E90034CDE99D
:10ABE0000634239B002B80F2DB80089B002B00F3B4
:10ABF000D78040F06D82684B0022DDE90601FBF74B
:10AC0000E3FCDDE90423FBF765FF089C26460028EA
:10AC100040F04382039F312307F8013B0AF1010A08
:10AC20003FE2E20705D5D6E90023FBF7CDFC01376B
:10AC30000123641008366DE7022770E7089CD046B0
:10AC40008FE703994F4B214412910B9903EBC403F7
:10AC5000DDE9106753E90223002946D04F4900205F
:10AC6000FBF7DCFD3B463246FBF7F6FACDE9100177
:10AC7000039FDDE90401FBF757FF0446FBF73AFCAD
:10AC800002460B46DDE90401FBF7E6FA30340246E2
:10AC90000B46CDE9042307F8014BDDE91023FBF750
:10ACA00005FF002865D1DDE9042338490020FBF7C2
:10ACB000D3FADDE91023FBF7F9FE002840F0B68057
:10ACC000129B9F423FF47AAFDDE91001304B002226
:10ACD000FBF77AFC2E4BCDE910010022DDE90401DF
:10ACE000FBF772FCCDE90401C3E730463946FBF7B8
:10ACF0006BFCCDE91001129B039C1493DDE9040168
:10AD0000FBF712FF1590FBF7F5FB02460B46DDE95A
:10AD10000401FBF7A1FA159B303304F8013B129BA9
:10AD20009C4206460F464FF0000224D11B4BDDE942
:10AD30001001FBF793FA02460B4630463946FBF703
:10AD4000D3FE002871D1DDE9102314490020FBF760
:10AD500083FA02460B4630463946FBF7A7FE002829
:10AD60003FF42CAF149F7B1E149317F8013C302B3B
:10AD7000F8D0C24649E0064BFBF726FCCDE90401BA
:10AD8000BCE700BF400C0208180C02080000F03FAE
:10AD90000000244000001C40000014400000E03F80
:10ADA000DDE90489039FDDE9062340464946FBF7B8
:10ADB00035FDFBF7B9FE0446FBF79CFBDDE90623F6
:10ADC000FBF702FC04F130060B46024649464046BA
:10ADD000FBF742FA07F8016B039E089BBE1BB342C8
:10ADE00038D102460B46FBF739FADDE906238046E7
:10ADF0008946FBF779FE58BBDDE906234046494604
:10AE0000FBF74AFE08B1E10722D42846594600F074
:10AE1000CFFA00233B70249B0AF101001860269BA7
:10AE2000002B3FF4E7AC1F60E4E427463B461F4697
:10AE300013F8012D392A07D1039A9A42F7D10399C1
:10AE4000302208F101080A701A7801321A7090E76E
:10AE5000D046EBE7A14B0022FBF7B6FB0022002314
:10AE600080468946FBF718FE00289CD0CDE70B9A58
:10AE7000002A00F0CD80229A012A00F3AF80139AB5
:10AE8000002A00F0A78003F233430A9C069F069A2B
:10AE90001A440692099A01211A442846099200F0A0
:10AEA0002AFB0646002F0CDD099B002B09DDBB4267
:10AEB000069AA8BF3B46D21A0692099AFF1AD31ADD
:10AEC00009930A9BF3B10B9B002B00F0A580002C8B
:10AED00010DD31462246284600F0B2FB5A460146B4
:10AEE0000646284600F010FB59468046284600F0EA
:10AEF0005FFAC3460A9B1A1B04D05946284600F045
:10AF00009FFB83460121284600F0F5FA0E9B002B9B
:10AF1000044640F383801A460146284600F090FB21
:10AF2000229B012B04467CDD4FF00008236904EBD3
:10AF30008303186900F091FAC0F12000099B1844BE
:10AF400010F01F0000F08E80C0F12003042B40F3AE
:10AF50008780C0F11C00069B03440693099B0344B1
:10AF600007440993069B002B05DD59461A462846DF
:10AF700000F0B4FB8346099B002B05DD21461A46F1
:10AF8000284600F0ABFB04460F9B002B6CD02146FB
:10AF9000584600F002FC002866DA002359460A22CF
:10AFA000284600F01CFA0B9B0AF1FF3A8346002B5F
:10AFB00000F08B81314600230A22284600F00FFA68
:10AFC000B9F1000F064600F39180229B022B40F35B
:10AFD0008D8051E0169BC3F1360356E7089B5C1E3B
:10AFE0000A9BA342BFBF0A9B0A94E21A0E9BB6BFFC
:10AFF0009B181C1B0E93089BB8BF0024002BB9BFE5
:10B00000069B089A069F089BBCBF9F1A00233EE739
:10B010000A9C069F0B9E45E70A9A6EE7229B012B2E
:10B0200019DC049BBBB9059BC3F313039BB9059BB8
:10B0300023F000431B0D1B0583B1069B01330693D0
:10B04000099B013309934FF001080E9B002B7FF4FD
:10B050006DAF012072E74FF00008F6E79846F4E77D
:10B0600080D018461C3076E7089B002B38DC229BEA
:10B07000022B35DDDDF82090B9F1000F0DD121460E
:10B080004B460522284600F0AAF9014604465846D8
:10B0900000F083FB00283FF7BDAD239B039F6FEAC1
:10B0A000030A4FF000082146284600F081F9002EDF
:10B0B0003FF4ABAEB8F1000F05D0B04503D0414628
:10B0C000284600F075F93146284600F071F99CE6F3
:10B0D00000242646E1E7C24626469BE500002440C0
:10B0E0000B9BDDF82090002B00F0F680002F05DD93
:10B0F00031463A46284600F0F1FA0646B8F1000F0C
:10B1000055D07168284600F01FF9326902320746AF
:10B11000920006F10C010C3000F0FCF801223946D7
:10B12000284600F0DBFA039B01330893039B4B4452
:10B130000A93049B03F00103B04609930646089B5B
:10B140002146013B58460493FFF782FA0346303309
:10B150000690414658460B9300F01FFB324681464D
:10B160002146284600F034FBC2680B9B074602BB11
:10B170000146584600F011FB0B9B02463946284613
:10B18000CDE90B3200F014F9229B0C9A089F43EA98
:10B190000201099B0B430B9B0DD1392B29D0B9F12F
:10B1A000000F01DD069B3133049A13707BE73046B4
:10B1B000B9E70122E2E7B9F1000F06DB229941EA83
:10B1C0000909099959EA010120D1002AECDD594603
:10B1D00001222846089300F081FA2146834600F0B8
:10B1E000DCFA0028089B02DCDED1DA07DCD5392B3B
:10B1F000D8D1049A392313703B461F46013B17F8F8
:10B20000012C392A50D001321A704CE7002A03DD94
:10B21000392BEED00133C7E7089A0A9902F8013CAE
:10B220008A422AD0594600230A22284600F0D7F83D
:10B23000B04583464FF000034FF00A0241462846CE
:10B2400007D100F0CCF880460646089B01330893EE
:10B2500075E700F0C4F83146804600230A222846EC
:10B2600000F0BDF80646F0E7B9F1000F039ACCBF35
:10B270004F46012717444FF000085946012228463F
:10B28000089300F02BFA2146834600F086FA002846
:10B29000B2DC02D1089BDB07AED43B461F4613F855
:10B2A000012D302AFAD0FEE6039A9A42A5D10AF17E
:10B2B000010A312379E7134BFFF7BBBA269B002B1A
:10B2C0007FF493AA104BFFF7B4BAB9F1000F03DC77
:10B2D000229B022B3FF7D0AE039F21465846FFF733
:10B2E000B7F900F1300307F8013B039ABA1A914508
:10B2F000BADD594600230A22284600F070F883463A
:10B30000EBE700BF631902080B0C02080048704706
:10B310008C0100200A44914200F1FF3300D17047B4
:10B3200010B511F8014B03F8014F9142F9D110BD4E
:10B33000014800F046BB00BF44480020014800F02F
:10B3400041BB00BF4448002070B5466A04460D4624
:10B350003EB91020FEF748FCC0E901666062066055
:10B36000C660666AF36883B1636ADB6853F82500D8
:10B37000B8B9012101FA05F6721D9200204600F0CD
:10B38000ECFA60B1C0E901560EE02122042120460A
:10B3900000F0E3FA636AF060DB68002BE4D1002080
:10B3A00070BD026843F825200023C0E90333F7E7A6
:10B3B00070B5466A05460C463EB91020FEF714FCEF
:10B3C000C0E9016668620660C6603CB16B6A62688B
:10B3D000DB6853F82210216043F8224070BD2DE94C
:10B3E000F0410E69074698460C4601F1140000230F
:10B3F0000568A9B202FB01814FEA114C2D0C02FB3A
:10B4000005C589B2013301EB05419E4240F8041B9A
:10B410004FEA1548ECDCB8F1000F1BD0A368B3422B
:10B4200012DC616838460131FFF78EFF2269023273
:10B4300004F10C01054692000C30FFF76BFF21462A
:10B440003846FFF7B5FF2C4604EB86030136C3F8F8
:10B45000148026612046BDE8F081020C12040346E8
:10B46000CAB90304102013F07F4F04BF1B02083039
:10B4700013F0704F04BF1B01043013F0404F04BFA2
:10B480009B000230002B05DB13F0804F00F1010020
:10B4900008BF202070470020E5E70368024613F04C
:10B4A00007000BD0D90722D4980749BF5B089B0837
:10B4B000012013605CBF13600220704799B209B984
:10B4C0001B0C102013F0FF0F04BF1B0A08301907D4
:10B4D00004BF1B090430990704BF9B080230D90739
:10B4E00003D45B0800F1010003D013607047002013
:10B4F00070472020704710B50C460121FFF724FF4C
:10B5000001224461026110BD2DE9F04F15460A6920
:10B510002B699A42B8BF0B460C46BCBF2C461D4651
:10B520002769D5F81090A368616807EB0906B34254
:10B53000B8BF013185B0FFF707FF00F1140101EB3F
:10B5400086080B46002243451DD304F1140305F180
:10B55000140203EB870702EB890302933B1B153BA5
:10B5600023F00303043304F11505AF4238BF04236D
:10B570000193029B0392934208D8002E5ADC066185
:10B5800005B0BDE8F08F43F8042BDCE7B2F800A06B
:10B59000BAF1000F24D004F1140E89464FF0000CCC
:10B5A0005EF8045BD9F800B0ABB21FFA8BFB0AFB64
:10B5B00003B34FEA154BD9F8005063444FEA154CDA
:10B5C0000AFB0BC505EB13459BB243EA05437745E0
:10B5D00049F8043B4FEA154CE2D8019B41F803C0FF
:10B5E000039BB3F802900432B9F1000F20D00B682E
:10B5F00004F1140C8E464FF0000ABCF80050BEF85F
:10B6000002B009FB05B5AA449BB243EA0A434EF8CF
:10B61000043B5CF8043BBEF800501B0C09FB0353D1
:10B6200003EB1A4367454FEA134AE6D8019D4B5195
:10B6300004319EE758F8043D002BA0D1013E9CE761
:10B640002DE9F843154612F0030206460F4607D0CF
:10B65000214C013A002354F82220FFF7C0FE074690
:10B66000AD1035D0746A3CB91020FEF7BDFAC0E9C0
:10B67000014470620460C460D6F82480D8F80840A1
:10B680004CB940F271213046FFF735FF0023C8F86E
:10B690000800044603604FF00009EB070AD539465D
:10B6A00022463046FFF730FF394680463046FFF7E6
:10B6B0007FFE47466D100BD0206838B922462146E0
:10B6C0003046FFF721FF2060C0F800900446E4E711
:10B6D0003846BDE8F88300BF080D02082DE9F047A1
:10B6E0000C464968236903EB6218A3680746914634
:10B6F0004FEA621A08F10106B3423FDB3846FFF712
:10B7000023FE0023054600F1140100F11002184643
:10B71000534536DB20692AEAEA7A04F1140319F06A
:10B720001F0901EB8A0103EB800C2ED0C9F1200E1A
:10B730008A460022186800FA09F002434AF8042BEE
:10B7400053F8042B9C4522FA0EF2F3D8ACEB040319
:10B75000153B23F00303043304F11500604588BF53
:10B760000423CA500AB108F10206013E38462E6190
:10B770002146FFF71DFE2846BDE8F08701315B003A
:10B78000BAE742F8040F0133C2E7043953F8042B37
:10B7900041F8042F9C45F9D8E7E70A690346006998
:10B7A000801A30B50DD11433143103EB820401EB50
:10B7B000820154F8045D51F8042D954202D004D35F
:10B7C000012030BDA342F4D3FBE74FF0FF30F8E790
:10B7D0002DE9F84F0C460646114620461746FFF75E
:10B7E000DCFF051E08D129463046FFF7ADFD0123D9
:10B7F000C0E90435BDE8F88FA4BF3B462746304674
:10B800007968A6BF1C4600250125FFF79DFD3E690E
:10B81000C560256907F1140104F1140900F1140E43
:10B8200007F1100201EB860C09EB8505F2460027B3
:10B8300059F8043B52F804BF1FFA83F817FA8BF744
:10B840001B0CA7EB0808C3EB1B4303EB28431FFAB1
:10B8500088F81F144D4548EA03434AF8043BE7D8EB
:10B860002B1B153B23F0030304331534A54238BFCB
:10B870000423194473449E460D4665450ED30CF1CE
:10B880000302521A22F0030203398C4538BF00220A
:10B890001A4452F8043D7BB10661ABE755F8048BBE
:10B8A00017FA88F4221402EB1842A4B244EA0244C4
:10B8B0004EF8044B1714E0E7013EEAE72DE9F341A7
:10B8C00001211C46DDE908659046FFF73DFDC4F304
:10B8D0001303C4F30A5407462CBB0193B8F10003C9
:10B8E00026D068460093FFF7D8FD0099F0B1019A81
:10B8F000C0F1200302FA03F30B43C2407B610192C3
:10B90000019BBB61002B14BF022101213961C4B12D
:10B91000A4F233440444C0F1350034602860384652
:10B9200002B0BDE8F08143F48013D6E77961E7E720
:10B9300001A8FFF7B2FD019B7B6101213961203035
:10B94000E5E707EB8103A0F2324030601869FFF7AA
:10B9500084FDC0EB41112960E1E738B502FB01F538
:10B960002946FEF7A7F9044618B12A460021FEF73A
:10B970004BF9204638BDF8B5074614460E4621B9A6
:10B98000BDE8F8401146FEF795B922B9FEF744F933
:10B9900025462846F8BD00F028F8A0420FD22146DF
:10B9A0003846FEF787F905460028F2D03146224690
:10B9B000FFF7B0FC31463846FEF72EF9E9E7354689
:10B9C000E7E77047704782B001B901A942B14BB1B6
:10B9D00013780B601278101E18BF012002B0704758
:10B9E0001046FBE76FF00100F8E751F8043C181F20
:10B9F000002BBCBF0B58C01870470346084641B126
:10BA0000FF2A04D98A221A604FF0FF3070470A706B
:10BA100001207047044A05491368002B08BF0B46F4
:10BA2000184410601846704724060020385E002035
:10BA3000FCF738BAFCF7CCBA0D48854613F012F97A
:10BA40000C480D490D4A002302E0D458C450043379
:10BA5000C4188C42F9D30A4A0A4C002301E013604F
:10BA60000432A242FBD3FEF79BF8FDF7F7FEFEE798
:10BA700000FC00200000002008050020101D020826
:10BA800008050020385E002000F05AB80368074A15
:10BA9000934206D1DA69D20606D510221A6201F065
:10BAA000AFB9034A9342F5D0704700BF0080004011
:10BAB000003801404FF0B0434FF0FF319A6B99636B
:10BAC000DA6BD9639A6B00229A63D86BDA63186CCD
:10BAD0001964186C1A64586C5964586C5A64986AE2
