:020000040800F2
:1060000000FC002099A9000815AA0008A1AA000810
:106010000DAB00080FAB000811AB0008000000003A
:1060200000000000000000000000000013AB0008AA
:1060300015AB00080000000017AB000817AB000804
:10604000E9A90008E9A9000835AB0008E9A900089A
:10605000E9A90008E9A900088BAB000891AB00088A
:1060600097AB00089DAB0008A3AB000841AB00084C
:106070004DAB000859AB000865AB0008E9A9000862
:10608000E9A90008E9A90008E9A90008E9A90008A8
:10609000E9A90008E9A90008A9AB0008E9A90008D6
:1060A000E9A90008E9A90008E9A90008E9A9000888
:1060B000E9A90008E9A90008E9A90008E9A9000878
:1060C00055AC000861AC0008E9A90008E9A900087E
:1060D00071AB000889AB00083DAC0008E9A90008D5
:1060E000E9A90008E9AB00081DAB0008E9A9000810
:1060F000E9A90008E9A90008E9A90008E9A9000838
:10610000E9A90008E9A9000829AB00086DAC00085E
:10611000E9A90008E9A90008E9A90008E9A9000817
:10612000E9A90008E9A90008E9A90008E9A9000807
:08613000E9A90008E9A9000833
:1061400010B5054C237833B9044B13B10448AFF3B1
:1061500000800123237010BD1805002000000000FE
:1061600090ED010808B5034B1BB103490348AFF399
:10617000008008BD000000001C05002090ED010813
:10618000034613F8012B002AFBD1181A0138704777
:1061900001F0FF01102A2BDB10F0070F08D010F8D8
:1061A000013B013A8B422DD010F0070F42B3F6D1DC
:1061B000F0B441EA012141EA014122F007047FF0F5
:1061C00000070023F0E80256083C85EA010586EA4C
:1061D000010685FA47F5A3FA87F586FA47F6A5FA88
:1061E00087F68EB9EED1F0BC01F0FF0102F0070294
:1061F00032B110F8013B013A83EA010313B1F8D13F
:106200000020704701387047002D06BF354603381F
:10621000073815F0010F07D1013015F4807F02BF58
:10622000013015F4C03F0130F0BC0138704700BFA9
:1062300010F8012B11F8013B012A28BF9A42F7D030
:10624000D01A704781F0004102E000BF83F00043A4
:1062500030B54FEA41044FEA430594EA050F08BF01
:1062600090EA020F1FBF54EA000C55EA020C7FEAC5
:10627000645C7FEA655C00F0E2804FEA5454D4EB42
:106280005555B8BF6D420CDD2C4480EA020281EA0C
:10629000030382EA000083EA010180EA020281EA44
:1062A0000303362D88BF30BD11F0004F4FEA013196
:1062B0004FF4801C4CEA113102D0404261EB4101A5
:1062C00013F0004F4FEA03334CEA133302D052422B
:1062D00063EB430394EA050F00F0A780A4F10104E7
:1062E000D5F1200E0DDB02FA0EFC22FA05F2801821
:1062F00041F1000103FA0EF2801843FA05F3594107
:106300000EE0A5F120050EF1200E012A03FA0EFC85
:1063100028BF4CF0020C43FA05F3C01851EBE371AF
:1063200001F0004507D54FF0000EDCF1000C7EEBCC
:1063300000006EEB0101B1F5801F1BD3B1F5001F0A
:106340000CD349085FEA30004FEA3C0C04F1010429
:106350004FEA445212F5800F80F09A80BCF1004F52
:1063600008BF5FEA500C50F1000041EB045141EAD4
:10637000050130BD5FEA4C0C404141EB0101013C9D
:1063800028BFB1F5801FE9D291F0000F04BF01468C
:106390000020B1FA81F308BF2033A3F10B03B3F15E
:1063A00020020CDA0C3208DD02F1140CC2F10C02EE
:1063B00001FA0CF021FA02F10CE002F11402D8BF4C
:1063C000C2F1200C01FA02F120FA0CFCDCBF41EA18
:1063D0000C019040E41AA2BF01EB0451294330BDE7
:1063E0006FEA04041F3C1CDA0C340EDC04F11404C4
:1063F000C4F1200220FA04F001FA02F340EA03009B
:1064000021FA04F345EA030130BDC4F10C04C4F1E0
:10641000200220FA02F001FA04F340EA03002946C0
:1064200030BD21FA04F0294630BD94F0000F83F40A
:10643000801306BF81F480110134013D4EE77FEAED
:10644000645C18BF7FEA655C29D094EA050F08BF39
:1064500090EA020F05D054EA000C04BF194610461A
:1064600030BD91EA030F1EBF0021002030BD5FEA5E
:10647000545C05D14000494128BF41F0004130BD86
:1064800014F580043CBF01F5801130BD01F00045DA
:1064900045F0FE4141F470014FF0000030BD7FEA4D
:1064A000645C1ABF194610467FEA655C1CBF0B4648
:1064B000024650EA013406BF52EA033591EA030F5F
:1064C00041F4002130BD00BF90F0000F04BF002157
:1064D000704730B54FF4806404F132044FF000058A
:1064E0004FF0000150E700BF90F0000F04BF002103
:1064F000704730B54FF4806404F1320410F0004569
:1065000048BF40424FF000013EE700BF42004FEA63
:10651000E2014FEA31014FEA02701FBF12F07F43E0
:1065200093F07F4F81F06051704732F07F4208BF97
:10653000704793F07F4F04BF41F40021704730B59E
:106540004FF4607401F0004521F000411CE700BFEA
:1065500050EA010208BF704730B54FF000050AE06D
:1065600050EA010208BF704730B511F0004502D56E
:10657000404261EB41014FF4806404F132045FEA70
:10658000915C3FF4D8AE4FF003025FEADC0C18BF19
:1065900003325FEADC0C18BF033202EBDC02C2F10B
:1065A000200300FA03FC20FA02F001FA03FE40EA9D
:1065B0000E0021FA02F11444BDE600BF70B54FF0A1
:1065C000FF0C4CF4E06C1CEA11541DBF1CEA13557F
:1065D00094EA0C0F95EA0C0F00F0DEF82C4481EAE7
:1065E000030621EA4C5123EA4C5350EA013518BF07
:1065F00052EA033541F4801143F4801338D0A0FBF4
:1066000002CE4FF00005E1FB02E506F00042E0FBA0
:1066100003E54FF00006E1FB03569CF0000F18BFA6
:106620004EF0010EA4F1FF04B6F5007F64F540744E
:1066300004D25FEA4E0E6D4146EB060642EAC621E1
:1066400041EA55514FEAC52040EA5E504FEACE2E4E
:10665000B4F1FD0C88BFBCF5E06F1ED8BEF1004F51
:1066600008BF5FEA500E50F1000041EB045170BDCD
:1066700006F0004646EA010140EA020081EA030111
:10668000B4EB5C04C2BFD4EB0C0541EA045170BD0D
:1066900041F480114FF0000E013C00F3AB8014F187
:1066A000360FDEBF002001F0004170BDC4F10004D0
:1066B000203C35DA0C341BDC04F11404C4F1200551
:1066C00000FA05F320FA04F001FA05F240EA0200AC
:1066D00001F0004221F0004110EBD37021FA04F6E2
:1066E00042EB06015EEA430E08BF20EAD37070BD9C
:1066F000C4F10C04C4F1200500FA04F320FA05F0FB
:1067000001FA04F240EA020001F0004110EBD370FC
:1067100041F100015EEA430E08BF20EAD37070BD6C
:10672000C4F1200500FA05F24EEA020E20FA04F345
:1067300001FA05F243EA020321FA04F001F00041F4
:1067400021FA04F220EA020000EBD3705EEA430E65
:1067500008BF20EAD37070BD94F0000F0FD101F094
:106760000046400041EB010111F4801F08BF013CCD
:10677000F7D041EA060195F0000F18BF704703F00B
:106780000046520043EB030313F4801F08BF013D92
:10679000F7D043EA0603704794EA0C0F0CEA13554E
:1067A00018BF95EA0C0F0CD050EA410618BF52EA08
:1067B0004306D1D181EA030101F000414FF000000E
:1067C00070BD50EA410606BF1046194652EA43061C
:1067D00019D094EA0C0F02D150EA013613D195EA90
:1067E0000C0F05D152EA03361CBF104619460AD1D8
:1067F00081EA030101F0004141F0FE4141F47001E2
:106800004FF0000070BD41F0FE4141F4780170BDD1
:1068100070B54FF0FF0C4CF4E06C1CEA11541DBF36
:106820001CEA135594EA0C0F95EA0C0F00F0A7F838
:10683000A4EB050481EA030E52EA03354FEA013165
:1068400000F088804FEA03334FF0805545EA131378
:1068500043EA12634FEA022245EA111545EA106540
:106860004FEA00260EF000419D4208BF964244F1D7
:10687000FD0404F5407402D25B084FEA3202B61AF6
:1068800065EB03055B084FEA32024FF480104FF4CA
:10689000002CB6EB020E75EB030E22BFB61A75463E
:1068A00040EA0C005B084FEA3202B6EB020E75EBD1
:1068B000030E22BFB61A754640EA5C005B084FEA39
:1068C0003202B6EB020E75EB030E22BFB61A754606
:1068D00040EA9C005B084FEA3202B6EB020E75EB11
:1068E000030E22BFB61A754640EADC0055EA060ED2
:1068F00018D04FEA051545EA16754FEA06164FEA15
:10690000C30343EA52734FEAC2025FEA1C1CC0D1C0
:1069100011F4801F0BD141EA00014FF000004FF04D
:10692000004CB6E711F4801F04BF01430020B4F10E
:10693000FD0C88BFBCF5E06F3FF6AFAEB5EB030CC6
:1069400004BFB6EB020C5FEA500C50F1000041EBC3
:10695000045170BD0EF0004E4EEA113114EB5C0490
:10696000C2BFD4EB0C0541EA045170BD41F4801163
:106970004FF0000E013C90E645EA060E8DE60CEA6B
:10698000135594EA0C0F08BF95EA0C0F3FF43BAF88
:1069900094EA0C0F0AD150EA01347FF434AF95EA3F
:1069A0000C0F7FF425AF104619462CE795EA0C0F23
:1069B00006D152EA03353FF4FDAE1046194622E7F0
:1069C00050EA410618BF52EA43067FF4C5AE50EACA
:1069D00041047FF40DAF52EA43057FF4EBAE12E7BA
:1069E0004FF0FF3C06E000BF4FF0010C02E000BF9B
:1069F0004FF0010C4DF804CD4FEA410C7FEA6C5C7E
:106A00004FEA430C18BF7FEA6C5C1BD001B050EA20
:106A1000410C0CBF52EA430C91EA030F02BF90EA0B
:106A2000020F0020704710F1000F91EA030F58BFCA
:106A3000994208BF90422CBFD8176FEAE37040F02C
:106A4000010070474FEA410C7FEA6C5C02D150EACA
:106A5000013C07D14FEA430C7FEA6C5CD6D152EA85
:106A6000033CD3D05DF8040B704700BF844610464A
:106A700062468C461946634600E000BF01B5FFF749
:106A8000B7FF002848BF10F1000F01BD4DF808ED19
:106A9000FFF7F4FF0CBF012000205DF808FB00BFEA
:106AA0004DF808EDFFF7EAFF34BF012000205DF844
:106AB00008FB00BF4DF808EDFFF7E0FF94BF012091
:106AC00000205DF808FB00BF4DF808EDFFF7CEFF92
:106AD00094BF012000205DF808FB00BF4DF808EDD1
:106AE000FFF7C4FF34BF012000205DF808FB00BFA2
:106AF0004FEA410C7FEA6C5C02D150EA013C0AD1BA
:106B00004FEA430C7FEA6C5C02D152EA033C02D1AB
:106B10004FF0000070474FF0010070474FEA41020C
:106B200012F5001215D211D56FF47873B3EB6252DF
:106B300012D94FEAC12343F0004343EA505311F006
:106B4000004F23FA02F018BF404270474FF0000098
:106B5000704750EA013005D111F0004008BF6FF0D6
:106B6000004070474FF00000704700BF4A0011D24C
:106B700012F5001211D20DD56FF47873B3EB625297
:106B80000ED44FEAC12343F0004343EA505323FAA3
:106B900002F070474FF00000704750EA013002D118
:106BA0004FF0FF3070474FF00000704780F000401A
:106BB00002E000BF81F0004142001FBF5FEA4103D5
:106BC00092EA030F7FEA226C7FEA236C6AD04FEAD5
:106BD0001262D2EB1363C1BFD2184140484041401A
:106BE000B8BF5B42192B88BF704710F0004F40F4CC
:106BF000000020F07F4018BF404211F0004F41F4E8
:106C0000000121F07F4118BF494292EA030F3FD0B3
:106C1000A2F1010241FA03FC10EB0C00C3F12003C6
:106C200001FA03F100F0004302D5494260EB400055
:106C3000B0F5000F13D3B0F1807F06D340084FEAC0
:106C4000310102F10102FE2A51D2B1F1004F40EBB5
:106C5000C25008BF20F0010040EA0300704749001D
:106C600040EB0000013A28BFB0F5000FEDD2B0FABA
:106C700080FCACF1080CB2EB0C0200FA0CF0AABFDD
:106C800000EBC25052421843BCBFD040184370477B
:106C900092F0000F81F4000106BF80F40000013281
:106CA000013BB5E74FEA41037FEA226C18BF7FEA58
:106CB000236C21D092EA030F04D092F0000F08BF9A
:106CC0000846704790EA010F1CBF0020704712F081
:106CD0007F4F04D1400028BF40F00040704712F1C0
:106CE00000723CBF00F50000704700F0004343F025
:106CF000FE4040F4000070477FEA226216BF08465B
:106D00007FEA23630146420206BF5FEA412390EA1D
:106D1000010F40F4800070474FF0000304E000BF13
:106D200010F0004348BF40425FEA000C08BF7047C4
:106D300043F0964301464FF000001CE050EA010288
:106D400008BF70474FF000030AE000BF50EA01029D
:106D500008BF704711F0004302D5404261EB41018A
:106D60005FEA010C02BF84460146002043F0B643AF
:106D700008BFA3F18053A3F50003BCFA8CF2083AD4
:106D8000A3EBC25310DB01FA02FC634400FA02FCDD
:106D9000C2F12002BCF1004F20FA02F243EB0200E4
:106DA00008BF20F00100704702F1200201FA02FC46
:106DB000C2F1200250EA4C0021FA02F243EB020039
:106DC00008BF20EADC7070474FF0FF0C1CEAD0527D
:106DD0001EBF1CEAD15392EA0C0F93EA0C0F6FD03E
:106DE0001A4480EA010C400218BF5FEA41211ED01C
:106DF0004FF0006343EA501043EA5111A0FB013108
:106E00000CF00040B1F5000F3EBF490041EAD371DC
:106E10005B0040EA010062F17F02FD2A1DD8B3F158
:106E2000004F40EBC25008BF20F00100704790F0C7
:106E3000000F0CF0004C08BF49024CEA502040EA19
:106E400051207F3AC2BFD2F1FF0340EAC2507047DF
:106E500040F400004FF00003013A5DDC12F1190F1D
:106E6000DCBF00F000407047C2F10002410021FA8F
:106E700002F1C2F1200200FA02FC5FEA310040F1A7
:106E8000000053EA4C0308BF20EADC70704792F020
:106E9000000F00F0004C02BF400010F4000F013A58
:106EA000F9D040EA0C0093F0000F01F0004C02BF53
:106EB000490011F4000F013BF9D041EA0C018FE7C2
:106EC0000CEAD15392EA0C0F18BF93EA0C0F0AD0C8
:106ED00030F0004C18BF31F0004CD8D180EA0100EE
:106EE00000F00040704790F0000F17BF90F0004F87
:106EF000084691F0000F91F0004F14D092EA0C0F69
:106F000001D142020FD193EA0C0F03D14B0218BFFB
:106F1000084608D180EA010000F0004040F0FE4041
:106F200040F40000704740F0FE4040F440007047DD
:106F30004FF0FF0C1CEAD0521EBF1CEAD15392EA5C
:106F40000C0F93EA0C0F69D0A2EB030280EA010C4C
:106F500049024FEA402037D04FF0805343EA1111E5
:106F600043EA10130CF000408B4238BF5B0042F143
:106F70007D024FF4000C8B4224BF5B1A40EA0C00E8
:106F8000B3EB510F24BFA3EB510340EA5C00B3EB1A
:106F9000910F24BFA3EB910340EA9C00B3EBD10F08
:106FA00024BFA3EBD10340EADC001B0118BF5FEA5A
:106FB0001C1CE0D1FD2A3FF650AF8B4240EBC25083
:106FC00008BF20F0010070470CF0004C4CEA502044
:106FD0007F32C2BFD2F1FF0340EAC250704740F493
:106FE00000004FF00003013A37E792F0000F00F085
:106FF000004C02BF400010F4000F013AF9D040EA03
:107000000C0093F0000F01F0004C02BF490011F496
:10701000000F013BF9D041EA0C0195E70CEAD1538E
:1070200092EA0C0F08D142027FF47DAF93EA0C0F75
:107030007FF470AF084676E793EA0C0F04D14B0259
:107040003FF44CAF08466EE730F0004C18BF31F00B
:10705000004CCAD130F000427FF45CAF31F0004305
:107060007FF43CAF5FE700BF53B94AB9002908BFBE
:1070700000281CBF4FF0FF314FF0FF3000F06CB91B
:10708000ADF1080C6DE904CE00F006F8DDF804E07F
:10709000DDE9022304B070472DE9F047089E0D4654
:1070A00004468E46002B40F082808A42174646D91D
:1070B000B2FA82F24AB1C2F1200105FA02F320FAD3
:1070C00001F1974041EA030E94404FEA1748230C20
:1070D000BEFBF8FCB9B208FB1CEE43EA0E430CFB06
:1070E00001F098420AD9FB180CF1FF3580F01681A7
:1070F000984240F21381ACF1020C3B441B1AA4B23B
:10710000B3FBF8F008FB103344EA034400FB01F141
:10711000A14209D93C1900F1FF3380F00181A1425D
:1071200040F2FE8002383C44641A40EA0C400021E0
:107130001EB1D4400023C6E90043BDE8F08702B980
:10714000FFDEB2FA82F2002A4FD1CB1B4FEA174E74
:107150001FFA87F80121B3FBFEFC250C0EFB1C3344
:1071600045EA034508FB0CF3AB4207D97D190CF146
:10717000FF3002D2AB4200F2E7808446ED1AA3B2A0
:10718000B5FBFEF00EFB105543EA054408FB00F882
:10719000A04507D93C1900F1FF3302D2A04500F207
:1071A000D7801846A4EB080440EA0C40C0E78B42A5
:1071B00008D9002E00F0AF800021C6E9000508467E
:1071C000BDE8F087B3FA83F100294BD1AB4202D37B
:1071D000824200F2B780841A65EB030301209E46C9
:1071E000002EAAD0C6E9004EA7E7C2F1200C01FA92
:1071F00002F3974020FA0CF04FEA174E21FA0CFCEC
:107200001843BCFBFEF1050C0EFB11CC1FFA87F8EE
:1072100045EA0C4501FB08F3AB4204FA02F409D934
:107220007D1901F1FF3C80F08B80AB4240F28880F9
:1072300002393D44EB1A85B2B3FBFEF00EFB10336E
:1072400045EA034500FB08F3AB4207D97D1900F17D
:10725000FF3C71D2AB426FD902383D44EB1A40EA91
:10726000014178E7C1F1200C8B4022FA0CF71F4353
:1072700020FA0CF405FA01F34FEA174E25FA0CF543
:107280001C43230CB5FBFEF91FFA87F80EFB1955BA
:1072900043EA054509FB08FAAA4502FA01F200FA99
:1072A00001F308D97D1909F1FF3047D2AA4545D924
:1072B000A9F102093D44A5EB0A05A4B2B5FBFEF015
:1072C0000EFB105544EA054400FB08F8A04507D919
:1072D0003C1900F1FF352DD2A0452BD902383C4492
:1072E00040EA0940A4EB0804A0FB02894C45C646CD
:1072F0004D4619D316D05EB1B3EB0E0264EB050414
:1073000004FA0CFCCA404CEA0202CC40C6E9002454
:107310000021BDE8F087314630460EE7AC46EDE689
:10732000184601E74345E6D2B8EB020E69EB0705C4
:107330000138E0E72846D3E760468FE78146BAE7A1
:10734000614677E708464BE7ACF1020C3D4415E790
:1073500002383C4426E700BF704700BF0022C0E966
:107360004822C0F82821704708B50121152005F0F2
:1073700069F8BDE808400121142005F063B808B59C
:107380000021142005F05EF8BDE80840002115201A
:1073900005F058B800230171026080F81431A0F89C
:1073A000163170473F299ABF00EB410040894FF6E4
:1073B000FF7070472DE9F0430446C1B00D4605F05B
:1073C00046F823798DF8003001208DF8015008F03F
:1073D000DFF8042D12D89DB90223AC4A0121A9403F
:1073E0000A40C2B1B4F88A2010120DF80300991CAB
:1073F0000133DBB20DF80320CBB20CE0172D2ED1F8
:10740000E3885BBAADF8023023895BBAADF804308B
:107410000623172DE1D9591C9F1C172DC9B2FFB2A5
:1074200005D80E2D1DD8052D34D0062D3BD00021BA
:107430004FF6FF724AF20107C8B2984280F0978077
:107440001DF80100082642405010D20746BF87EAC7
:10745000000292B282B2013EF6D10131ECE7022382
:10746000D7E7A5F10F02082AE1D801A050F822F0D1
:10747000AD740008FB7400082F7400082F74000816
:107480002F7400082F7400082F7400084975000835
:10749000FB740008B4F88C2010120DF803000DF8EE
:1074A00001203B46C3E7B4F88E20F5E7B4F88C2002
:1074B00010120DF803000DF80120C2F3C7015207A6
:1074C0001CBF0131C9B203330DF80710DBB2002233
:1074D000D7B253FA82F08F42C0B202D30B44DBB270
:1074E000A5E722F001062644FF07B6F88E6048BFE4
:1074F00036120DF800600132EAE7B4F88C0002128F
:107500000DF80320C2B20DF801205200D2B2DE1CE9
:10751000511D0B44F6B240000DF80700DBB204F138
:107520008E073146481C8C460231C9B28B42C0B22C
:1075300001D19319D3E737F802EB4FEA2E280DF863
:107540000C800DF800E0EDE7B4F88E2010120DF875
:1075500003000DF80120B4F89010DA1CD2B2081222
:1075600004330DF80700DBB20DF802105FE70DF8E9
:1075700003209E1C0133DBB2F6B212120DF8032079
:1075800000230DF80630206803685B6998470130D6
:10759000F9D1FFF7E9FE0027FBB2B34207D220681A
:1075A0001DF8071003681B6898470137F4E7FFF7D9
:1075B000E6FE04F04CFF082607464FF0000940F2B3
:1075C000DC58206803681B699847002846D020686B
:1075D00003685B699847013E09F101030DF8090052
:1075E000F6B25FFA83F9B9F1050F52D19DF8002088
:1075F00023799A4240F09F809DF8013003F07F028A
:10760000AA4240F09A801A062ED59DF80200D8B9F9
:1076100000214FF6FF73A9F102054AF20106CAB232
:10762000AA426BDA1DF8022008205340DF074FEA18
:10763000630246BF86EA02039BB293B20138F5D1DA
:107640000131ECE70028BCD0002384F81431A4F801
:10765000163184F81C3141B0BDE8F083D4F82031F4
:10766000002BC0D09847BEE7013B162B11D8DFE8AE
:1076700003F0404040400F0F101010101010101079
:107680000F0F101010101043400000BF6080C100A9
:10769000032604F0DCFEC31B43458CBFE220002020
:1076A000002ECFD10028CFD1B9F1040FB0D89DF86A
:1076B0000130042B43D8022B43D8013B012B2CD89B
:1076C0009DF8026000217710CBB2BB4223DA3F2B3A
:1076D0000BD89A1C04EB43001DF812C00DEB4202BC
:1076E00012F8015C45EA0C25458184F81D31013111
:1076F000EAE79DF80260CCE70526CAE71DF8051009
:10770000DAB2914205D1E94419F8012CB2EB132FFA
:10771000CDD0E32098E7F20701D4002094E73F2B77
:107720009FBF0DEB430104EB4302C9785181013344
:1077300084F81D31F1E7E02086E7E12084E7172B8C
:10774000EBD19DF8021000224910D3B28B42E4DA4B
:107750003F2B08D80DEB430604EB4300F77835794F
:1077600045EA0725458184F81D310132EDE700BF68
:10777000C18002810421FFF71DBE084601F0E2B975
:107780000846114601F0FABE084601F0E3B930B4EC
:1077900004460B46216810460022A1B101F10805FC
:1077A000AB420DD18B88013B9BB28B805BB90B68E0
:1077B00022B11360036830BC5B6818472360F9E7A7
:1077C0000A460968E9E730BC70474FF6FF739942F3
:1077D0001FBF03688A0903EBC20301F03F011ABF10
:1077E000586800EB01100020704700EBC100D0E9A1
:1077F000000170472DE9F84F05680446A16831B1D2
:107800000B68A3602B6828465B689847F6E7A0469C
:107810000D4658F80C6B8A46228EE76AABB29A4244
:107820000FD907EBC3099B46D9F8041019B1336887
:1078300030465B68984747F83BA00135C9F804A07B
:10784000EAE700232386B8454FF6FF73A38604D0EA
:10785000336839465B68304698472046BDE8F88F64
:107860008B8C30B5013B0D6A9BB205EBC30462689B
:107870009AB1618835F833508D420ED902EB01126E
:107880004D1C658000244FF6FF7514725581D4603D
:10789000026001EB8313838030BD002303604FF649
:1078A000FF73F8E72DE9F84F037ADB0706460C462D
:1078B00006D501682046083150F8082BFFF767FF0E
:1078C000337A13F0600F27D037884FF6FF7904F131
:1078D0002C0A04F1080B4F451CD039465046FFF7DF
:1078E00074FF90F90830B0F80A80002B054604DADE
:1078F000C16822685846FFF74AFF21462846FFF72D
:10790000D1FF2B7A23F07F032B72A38E6B81A78686
:107910004746E0E737807780BDE8F88F38B5436A9F
:10792000034400251D710446011D006804F05AFD42
:1079300000B16562606A38BD38B5436A01331F2BF8
:1079400004460D4606D8606A431C63620444012065
:10795000257138BDFFF7E2FF0028F4D00020F8E7DA
:1079600038B54FF4E13007F069F8314A3148012168
:10797000FFF710FD304804F0B9FB012806D02E486F
:10798000012104F0B7FB2D4804F04EFC2C4A2D4891
:107990002D4C0123002104F049FC0023194642F23A
:1079A0001072284804F04CFC0121142004F033FD2F
:1079B0000121152004F02FFD0121142004F042FDC7
:1079C0000121152004F03EFD20492148082204F041
:1079D00012FB20492048102204F01EFB08221F49F8
:1079E0001F4804F02AFB08211E4804F06BFB00210D
:1079F0001D4804F055FB01211C4804F02FFB1C48D6
:107A0000012104F03DFBA4F10B05204604F036FBF8
:107A100038B9284604F0B9FA42F2107007F0B8FD00
:107A2000F3E7BDE838401348012104F0EBBC00BF88
:107A3000B4140020880500209315002004150020B0
:107A4000A58200086D1500207B150020340500205C
:107A50007115002008000020721500201800002079
:107A600075150020911500207D1500207A15002045
:107A70007C15002005150020014804F0EBBB00BF79
:107A80006E150020F8B5054616460C468F18BC4208
:107A900005D014F8011B2846FFF74EFFF7E7AA6A46
:107AA0003244AA62F8BD38B5054608460C46FEF7D2
:107AB00067FB214602462846FFF7E4FF38BD2DE963
:107AC000F04786B00DF11606074615461C46B2462D
:107AD000284621460A220023FFF7C6FA303206F86C
:107AE000012D284621460A220023FFF7BDFAA146B0
:107AF000A846B9F1000F08BFB8F10A0F05460C46B9
:107B0000E6D2AAEB060231463846FFF7BBFF06B0C5
:107B1000BDE8F08710B50446FFF70EFFA36A0344E3
:107B2000A36210BD38B50C4B04469D786DB1DA7870
:107B30008A4203F10203F8D15C212046FFF7EAFFF5
:107B400029462046FFF7E6FF05E00029F9D1034961
:107B50002046FFF7A8FF38BD05EE010816EE010824
:107B600070B50C46222115460646FFF7D3FF254483
:107B7000AC4205D014F8011B3046FFF7D3FFF7E7FE
:107B800022213046FFF7C6FF70BDF8B50D467B21B8
:107B90000446FFF7BFFF2D884FF6FF77BD4226D082
:107BA000E06A29462C30FFF710FE2221C668054600
:107BB0002046FFF7AFFF013E16F8011F19B120461E
:107BC000FFF7B0FFF8E722212046FFF7A3FF3A2195
:107BD0002046FFF79FFF2846214600F011F86D89E7
:107BE000BD4204D02C212046FFF794FFD6E7204663
:107BF0007D21FFF78FFFA06AF8BD000000000000A4
:107C00002DE9F04F037A03F07F030C2B87B0054674
:107C10000C4610D8022B14D9033B092B11D8DFE8EE
:107C200013F0910180018D01C0011000BD01100011
:107C3000A90110001200202B00F06C81402B00F0F5
:107C40004981C749B0E1D0E900984A4643464846D1
:107C50004146FEF71BFF0028F3D0002200234846D0
:107C60004146FEF713FF68B94A4643464846414637
:107C7000FEF7EEFA02460B4648464146FEF706FF7F
:107C80000028DED10022002348464146FEF708FFC7
:107C900028B12D212046FFF73DFF08F10048ACA395
:107CA000D3E9002348464146FEF70EFF00285AD08C
:107CB000AC4FDFF8B4B208254FF0000A4FF48076DD
:107CC00029463846FFF791FD02460B464846414695
:107CD000FEF7FAFE70B129465846FFF786FD0246C8
:107CE0000B4648464146FEF769FCB2448146884649
:107CF0000FFA8AFA013D4FEA6606E1D2002200231C
:107D000048464146FEF7EAFE90B393A3D3E9002329
:107D100048464146FEF7CEFE50B30027A5EB070BC1
:107D20001BF0800F24D190485946FFF75EFD8F4B22
:107D30000022FEF743FC4A464346FEF7CFFE78B1E9
:107D400088485946FFF751FD02460B4648464146D2
:107D5000FEF734FCAAEB060A814688460FFA8AFA37
:107D600076100137DAE74FF4807608258246C5E7BA
:107D700041464846FEF7FAFE7D4F06460246092375
:107D80000A215DB2092A03F1FF33DBB204D9B7FB44
:107D9000F1F7B2FBF1F2F4E73046FEF795FB02464D
:107DA0000B4648464146FEF751FA8046384689461A
:107DB000FEF78AFB02460B4640464946FEF7FEFBAD
:107DC00080468946FEF7D2FE8346FEF77DFB0246DB
:107DD0000B4640464946FEF739FA02460B46FEF787
:107DE00037FAFEF7C3FE00EB0B0847450CD8013607
:107DF000BAF1000F14D0092E12D90AF1010A0FFAB4
:107E00008AFA4FF0000801260A21B8FBF1F301FBC2
:107E1000138242B9002D06DD013D98466DB2F4E7AC
:107E20004FF00008F0E70DF116010A20B6FBF0F262
:107E300000FB1263303301F8013D3346092B16462F
:107E4000F4D80DF11606721A2046FFF71BFEEDB1AD
:107E50000DF10F012B460A20013B5BB25A1C09D0E1
:107E6000B8FBF0F200FB128808F1300801F8018934
:107E70009046F1E7EAB204AB991A2E2001F8010C02
:107E8000D143194401322046FFF7FCFDBAF1000F3F
:107E90003ED065212046FFF73DFEBAF1000F1FFAE4
:107EA0008AF505DA2D212046FFF734FE6D42ADB28A
:107EB00031460A20B5FBF0F200FB1253303301F8D3
:107EC000013D2B46092B95B2F4D8721A2046FFF7D4
:107ED000D9FD1DE05B212046FFF71CFE2D884FF6E3
:107EE000FF76B54210D0E06A29462C30FFF76DFCD2
:107EF00005462146FFF784FE6D89B54204D02C214A
:107F00002046FFF707FEECE75D212046FFF702FE63
:107F1000A06A03E001462046FFF737FE07B0BDE840
:107F2000F08F056845B12846FEF72AF90246294632
:107F30002046FFF715FEEBE72A46F8E70168CA88F6
:107F40000831F5E70168CA880831BFE7AFF3008060
:107F500000000000D0126341F168E388B5F8E43E08
:107F60001DEE0108A0EE010858EE010800002440B3
:107F700000CA9A3BD0E90067002E77F100030ADAC5
:107F80002D212046FFF7C6FD724267EB47032046CE
:107F9000FFF795FDBCE732463B46F8E7D0E9002302
:107FA000F5E7037823B103492046FFF77CFDAFE7EF
:107FB0000149F9E722EE010827EE01082DE9F04119
:107FC0000E46B4B03549074604F0D2F996F8403071
:107FD00003F07F03042B53D0052B5BD04FF0000838
:107FE000414638466D460097CDF8248004F0D2F91A
:107FF0000FCD0AAC0FC40FCD0FC495E8030084E881
:1080000003000DF1280CBCE80F0014AD0FC5BCE84F
:108010000F000FC594E8030085E803000DF1500C34
:10802000BCE80F001EAC0FC4BCE80F000FC495E8FD
:10803000030084E803000DF1780CBCE80F0028ADC4
:108040000FC5BCE80F000FC594E8030085E80300E6
:108050001EA8CDF8C880FFF761FC14A83396FFF77F
:108060005DFC28A906F13800FFF7CAFD28A8FFF734
:1080700055FC0AA8FFF752FC6846FFF74FFC05E0E5
:10808000B16B0029AAD0384604F084F9384634B0E0
:10809000BDE8F081B16B0831F5E700BF15EE0108CE
:1080A0002DE9F04F968E4FF6FF794E4585B0074685
:1080B0008846144613D0314602F12C00FFF785FBA9
:1080C0004389A386002305460372A0F80A90C36083
:1080D00079884FF6FF73994268D13E806BE016466F
:1080E000138E56F80C9B43B1314602A8FFF7B8FB3C
:1080F000029D15B1BDF80C60EAE7638E258E9D42A6
:108100001DD1B5F5806F4AD0E36AD9F800106D0033
:10811000ADB29E424FEAC5023AD10B6848461146BD
:10812000984700283BD03346024606F1200153F819
:1081300004CB42F804CB8B42F9D1E0626586B4F8F7
:1081400030A0E36A01930AF1010292B2B2F5806FA6
:108150002286D9F800200CBF3F254025290112684E
:10816000484603EBCA0B9047019BCBF8040000285C
:1081700008BF002523F83A5000233146ABF80230FF
:1081800002A8FFF76DFB029DBDF80C603DB19FE7B3
:10819000D1F808A048461946D0470028CDD1012380
:1081A00023710025284605B0BDE8F08F04F12C00AE
:1081B000FFF70BFB46817E802B7AC5F80C8003F01D
:1081C0007F032B72EEE72DE9F84F064617460D4662
:1081D00031B3018802F12C084046FFF7F6FA044655
:1081E000F0B1B0F80A90D0F80CA02846FDF7C8FF0F
:1081F0008346BAF1000F0FD05046FDF7C1FF03468A
:108200009B450BD100239B4510D0E95C1AF8032055
:10821000914203D10133F6E75346F1E74946DBE7E4
:108220003A4629463046FFF73BFF04462046BDE864
:10823000F88F08B50B4699B1037A13F07F0F0CD174
:1082400023F07F0343F0200303724FF6FF73038094
:108250004380FFF7B8FF034602E013F02003F8D194
:10826000184608BD70B50E46D0E90021044602F15B
:108270003800FFF7DEFF2168054660B1FFF712FB0B
:108280002B7A23F07F0343F00C032B723046FEF76A
:108290003DF9C5E90001206810B1007980F00100C6
:1082A00070BD000070B5002186B0384804F0AAF80F
:1082B000002137480522FFF75BFA364B014618705C
:1082C00000285DD13248344EFFF76CF8324A33490A
:1082D000054602F13800FFF7ACFF044660B13146B5
:1082E000FFF7E0FA237AA8B2002123F07F03C4E964
:1082F000000143F008032372294B25480493012110
:108300000396FFF74FF8FEF70BFD2649FEF710FE28
:10831000014603A8FFF7A6FF234B1D480493022143
:108320000396FFF73FF8FEF7FBFC1E49FEF700FE41
:10833000014603A8FFF796FF1C4B15480493042140
:108340000396FFF72FF8FEF7EBFC1649FEF7F0FD5A
:10835000014603A8FFF786FF0F4903A8FFF72EFE8B
:10836000039C2046FDF70CFF0123CDE90033C1B289
:1083700081230F48224603F019FE03A803F0B2FF41
:108380000121024804F03EF806B070BD051500203A
:1083900088050020B4060020400500202DEE0108CD
:1083A00031EE01080000C84235EE01083AEE01083E
:1083B000701500200D480E4908B500F10C020D4B58
:1083C000C2624FF480220360026300234FF6FF7203
:1083D00003718360828680F84030074A00F07AFBA0
:1083E000BDE808400548FEF7B9BF00BF40050020C2
:1083F000F577000804000020000000208805002018
:1084000002F026BF02F029BF7047000070B50023BC
:1084100086B0CDE904334FF0B0420F4DD16C41F03E
:108420000201D164D26C039302F002024FF4805631
:10843000009201A92846CDE90163009A08F082FF65
:108440003146284609F09EF831460446284609F090
:1084500025F8204606B070BD000400484FF0B04338
:1084600082B0DA6C0243DA64DB6C18400190019B45
:1084700002B070472DE9F04186B01422002101A816
:1084800000F070FB0220FFF7E9FF144D144F0420A9
:10849000FFF7E4FF4FF4807601230024CDE9016368
:1084A00001A903232846CDE903434FF4005808F0FF
:1084B00049FF01A93846CDF8048008F043FF224661
:1084C0004146384609F064F828462246314609F00C
:1084D0005FF8204606B0BDE8F08100BF0004004808
:1084E00000080048032810B50ED8012810D868B934
:1084F00002460B484FF4807109F04AF800220948FF
:108500004FF4005109F044F8002010BD0122F0E7BB
:10851000002203484FF4807109F03AF80122EEE797
:1085200000040048000800480220704700207047FF
:108530000120704710B59AB04822002108A800F029
:1085400011FB1822002102A800F00CFB09F0DCFE50
:108550004FF0B0420024D2F8903023F01803C2F854
:108560009030D2F8003423F4C06343F40073C2F8AF
:108570000034D2F80034119403F4C06301934FF433
:108580008072019B0C922E234022089381230B932F
:108590000D920123B02208A8CDE90E341093129257
:1085A00013940AF003F808B103F07AF84F2302217C
:1085B00002A8CDE90234CDE90444CDE906440AF02D
:1085C00095FA08B103F06CF81AB010BD13B5037832
:1085D000082B11D8DFE803F0128287108E8E051069
:1085E00092000479204606F097F9204606F072F9C9
:1085F0000021204606F098F902B010BD002006F0D8
:108600008BF9012839D1012006F086F9012804D020
:10861000012007F05DFB00283DDC022006F07CF91C
:108620000128E9D0022007F053FB0028E4DD0122F5
:1086300001A9022007F070FA022006F06DF9002867
:10864000F0D1022007F03EFB00283FD19DF8041036
:10865000022006F0B3F8E5E7012201A9002007F0A7
:108660005BFA002006F058F9044630B907F02AFBFF
:1086700048B99DF8041006F0A1F8002007F028FB87
:108680000028E9DCBFE70128F7D19DF80410204657
:1086900007F08AFAF1E7012201A9104607F03CFA37
:1086A000012006F039F90028B2D1012007F00AFBB9
:1086B00028B99DF80410012006F080F8A8E70128E9
:1086C000A6D19DF8041007F06FFAA1E70128A9D1FF
:1086D0009DF80410022007F067FAA3E70FF0D4F921
:1086E00004F05CFC88E7074B1B68002B84D04068D3
:1086F000984781E7406807F091FB7DE7406807F005
:1087000093F879E73454002030B5284B284A9A6012
:1087100085B007F0B7FBFFF70DFF4FF0B0430B201C
:108720009A6C42F004029A649A6C02F0040203927A
:10873000039A9A6C42F001029A649B6C002203F047
:10874000010311460293029B07F0FAFB0B2007F08E
:1087500029FC07F04BFB06F0F3FE06F069F9002454
:1087600001460546234603220120CDE9004407F0D7
:1087700015F92346032229460220CDE9004407F0DB
:108780000DF906F073F905F06FF9E5B2284606F029
:10879000C3F810B9284606F09DF80134032CF4D133
:1087A00005B0BDE8304007F007BB00BF00ED00E0BA
:1087B0000060000807F00EBBF7B5FFF7A5FF4FF00C
:1087C000B0432E4EDA6C2E4C42F00202DA64DB6CBF
:1087D00003F002030193019B05F084FD294B341B38
:1087E0001427474300251C44BD4223D302F0D0F890
:1087F000FFF70CFE98B3244803F02EFE234B2448C9
:108800001A68244B196803F027FE234807F048F93B
:1088100003F0D4FF012824D0022824D010B91F4827
:1088200007F03EF91E4C07F0D5FA2378EBB902F0B9
:10883000B1F8F8E76A460421601906F0C1FE6946FE
:108840003246042312F801CB11F8010B844518BFFE
:1088500002F8010C013BF5D104350436C4E7114898
:10886000CAE71148DCE71148DAE706F07DF800288E
:10887000D9D0002007F05CF8D5E700BF3003002016
:1088800000000020D0000208E8EE010824000020CB
:10889000FEEE0108340000200EEF010822EF01086F
:1088A000B5060020F3EE01082EEF010839EF0108AC
:1088B000054808B5082303600AF0E6FC18B1BDE8D6
:1088C000084002F0EDBE08BD344D00204FF0B0432B
:1088D00007B55A6E42F001025A665B6E002203F041
:1088E0000103019311463220019B07F029FB32203E
:1088F00003B05DF804EB07F055BB0000024B98682D
:10890000024BC0431860704700280040B8060020A2
:10891000014B1868704700BFB8060020034B044A9B
:108920009B681068DB43181A704700BF002800409E
:10893000B8060020034B187810B1034B9868C04369
:10894000704700BFB6060020002800400320704793
:1089500008B501464FF47A720023C003490CFEF7B4
:1089600083FB08BD4FF47A72A0FB0223D00B40EAD0
:108970004340704710B5074B074C0122DA654FF4AE
:10898000807120460AF0B0F94FF0FF3323630020D6
:1089900010BD00BF002800401C4F002002460021EF
:1089A00001480AF0B6BB00BF1C4F0020024601215F
:1089B00001480AF0AEBB00BF1C4F002010B58CB0C0
:1089C0002C220021044601A800F0CCF8FFF7D2FFCA
:1089D0000C4B186800230444089306934FF000538F
:1089E000E4430793084802944FF48073012201A9DD
:1089F0000B930AF08FFA08B102F052FE00200CB07F
:108A000010BD00BFB80600201C4F00200C4B70B5F5
:108A10009C68064602210B480AF082FBE4430022D0
:108A20001219C2F30E044FF47A71A4FB014540F110
:108A30000003E40BD00B348040EA434070BD00BF1C
:108A4000002800401C4F0020014800210AF068BBAC
:108A50001C4F0020014801210AF062BB1C4F00207E
:108A6000F8B5114E3578E5B9104C2A4629464FF035
:108A7000FF372846276302F063FBFFF77BFF4FF4C5
:108A8000807120460AF030F9204627630AF0ECFA9C
:108A90002A46022120460AF03CFBFFF72FFF012364
:108AA00033700020F8BD00BFB60600201C4F002028
:108AB0000DF0AABD10B5064C022120460AF030FB8D
:108AC0000221421C2046BDE810400AF022BB00BF34
:108AD0001C4F00200B460146184600F001B800006C
:108AE00010B504460448134620B10A460220214628
:108AF000AFF3008010BD00BF0000000070B50D4D49
:108B00000D4C641BA4100026A64209D10B4D0C4C41
:108B100016F03EF9641BA4100026A64205D170BDD4
:108B200055F8043B98470136EEE755F8043B984763
:108B30000136F2E7B8000208B8000208B8000208DF
:108B4000C8000208024B0146186800F061B800BF77
:108B500038000020024B0146186800F00BB800BF37
:108B60003800002002440346934200D1704703F8C6
:108B7000011BF9E738B50546002945D051F8043CFA
:108B80000C1F002BB8BFE41801F082FB1F4A1368CA
:108B9000104633B9636014602846BDE8384001F0E0
:108BA0007DBBA3420BD921686218934204BF1A68A7
:108BB0005B68636004BF521822600460ECE71A46E9
:108BC0005B680BB1A342FAD911685018A0420BD1CF
:108BD00020680144501883421160DDD118685B6839
:108BE000536001441160D7E702D90C232B60D3E70F
:108BF000206821188B4204BF19685B68636004BF5A
:108C0000091821605460C7E738BD00BFBC060020CA
:108C1000F8B5CD1C25F0030508350C2D38BF0C2503
:108C2000002D064601DBA94203D90C233360002046
:108C3000F8BD01F02DFB21490A6814469CB9204F6C
:108C40003B6823B92146304600F0A0FC3860294635
:108C5000304600F09BFC431C23D10C23336030468C
:108C600001F01CFBE3E723685B1B17D40B2B03D934
:108C700023601C44256004E06368A2420CBF0B60C3
:108C80005360304601F00AFB04F10B00231D20F075
:108C90000700C21ACCD01B1AA350C9E72246646849
:108CA000CCE7C41C24F00304A042E3D0211A3046D0
:108CB00000F06CFC0130DDD1CFE700BFBC06002026
:108CC000C00600202DE9F04788B0002B1F4614464F
:108CD000B8BF03F10043129A109DDDF84CA0B6BF57
:108CE0001F4600232D231370149B23F02008B8F196
:108CF000460F05D0B8F1450F00D10135022300E041
:108D0000032307AA049206AACDE902A2CDE9003501
:108D100022463B4600F0D8FCB8F1470F064602D188
:108D2000119BDB0722D5B8F1460F06EB050910D1E0
:108D30003378302B0AD10022002320463946FDF734
:108D4000A5FE18B9C5F10105CAF80050DAF80030DF
:108D500099440022002320463946FDF797FE08B1CA
:108D6000CDF81C903022079B4B4507D3079B159AE3
:108D70009B1B3046136008B0BDE8F087591C079173
:108D80001A70F0E7F7B503460029B8BF494203F867
:108D9000022BB4BF2D222B22092942702ADD0DF1AE
:108DA0000704A4460A27A6460A4691FBF7F607FBE6
:108DB00016153035632A04F1FF340EF8015C314694
:108DC000F1DC3031AEF1020504F8011C441C2946E7
:108DD00061450AD30DF10902A2EB0E02654588BF79
:108DE00000221344181A03B0F0BD11F8012B04F847
:108DF000012FEDE7302330318370C170031DF1E79F
:108E00002DE9F04F91B00C46DDF8688016461F46FC
:108E1000054601F02BFA036809931846FDF7B0F9EF
:108E200000230E93D8F800300A90073323F007038D
:108E300003F1080294F81890D4F800B0C8F80020A4
:108E4000D3E90023C4E91223D4E9128A2AF00043AB
:108E50000B930B999C4B4FF0FF324046FDF748FEB9
:108E600070BB994B0B994FF0FF324046FDF722FE45
:108E700030BB0022002340465146FDF711FE10B1E1
:108E80002D2384F84330914B9148B9F1470F94BF9B
:108E900098468046032323612BF0040323604FF0A0
:108EA000000A009733460FAA2146284600F0D2F95F
:108EB000013040F08F804FF0FF3011B0BDE8F08FEF
:108EC0004246534640465146FDF712FE40B1BAF1C4
:108ED000000FBCBF2D2384F843307E487E4BD4E77F
:108EE00063685A1C09F0DF0142D106236360002247
:108EF00006920EAACDE904920DAA4BF48063039268
:108F00000DF13302CDE901322360636800934246DC
:108F1000534628460B91FFF7D5FE0B99472980460B
:108F20000D9908D1C81C02DB6368994240DDA9F1A4
:108F300002095FFA89F9B9F1650F1FD801394A466C
:108F400004F150000D91FFF71DFF0E9A1318012A2E
:108F50008246236102DC2268D20701D501332361F6
:108F60009DF83330002B9CD02D2384F8433098E7B4
:108F70004729BCD1002BBAD10123B7E7B9F1660F5D
:108F800018D1002963680BDD216113B92268D0076D
:108F900002D501330B442361A1654FF0000ADFE7DE
:108FA00013B92268D20701D50233F4E70123F2E7AF
:108FB0004FF067090E9B994205DB23682161D807B2
:108FC000EAD54B1CE7E70029D4BFC1F10202012218
:108FD0001344E0E723685A0507D423694246314623
:108FE0002846B84701302BD165E7B9F1650F40F24B
:108FF000DC80D4E9120100220023FDF747FD0028A0
:1090000033D0364A012331462846B84701303FF471
:1090100052AFDDE90D239A4202DB2368D8070FD552
:10902000DDE9092331462846B84701303FF443AF14
:109030004FF0000804F11A090E9B013B434509DC7F
:1090400023689B0700F10181E0680F9B9842B8BF3D
:10905000184632E701234A4631462846B8470130D0
:109060003FF429AF08F10108E6E70D9B002B37DC40
:109070001A4A012331462846B84701303FF41BAF56
:10908000DDE90D23134302D12368D907D8D5DDE9E3
:10909000092331462846B84701303FF40CAF4FF062
:1090A000000904F11A0A0D9B5B424B4501DC0E9B43
:1090B00094E70123524631462846B84701303FF431
:1090C000FAAE09F10109EEE7FFFFEF7F79F0010841
:1090D0007DF0010885F0010881F0010843FD0108D9
:1090E0000E9AA36D9A42A8BF1A46002A914637DC11
:1090F0004FF0000B29EAE97904F11A02D4F858A0DC
:10910000AAEB09035B4533DCDDE90D239A423BDB27
:109110002368DA0738D40E9A0D99A2EB0A03A2EB62
:1091200001099945A8BF9946B9F1000F34DC4FF009
:10913000000829EAE97904F11A0ADDE90D239B1AEE
:10914000A3EB090343457FF77BAF0123524631462A
:109150002846B84701303FF4AEAE08F10108ECE70D
:109160001346314642462846B8470130C0D1A2E6F0
:109170000123314628460B92B84701303FF49BAE9D
:109180000B9A0BF1010BB9E7DDE9092331462846BB
:10919000B8470130BFD18EE64B4608EB0A02314694
:1091A0002846B8470130C2D185E60E9A012A01DC73
:1091B000DB0737D50123424631462846B847013000
:1091C0003FF479AEDDE9092331462846B84701303E
:1091D0003FF471AED4E9120100220023FDF756FCE2
:1091E000D8B90E9B08F10102013B31462846B84729
:1091F00001300ED15FE601234A4631462846B84782
:1092000001303FF458AE08F101080E9B013B434585
:10921000F1DC534604F15002E1E64FF0000804F19E
:109220001A09F2E701234246DFE701234A463146A5
:109230002846B84701303FF43EAE08F10108E36824
:109240000F995B1A4345F0DCFEE64FF0000804F18D
:109250001909F4E72DE9F047164699468A680B6923
:10926000DDF820809342B8BF1346336091F8432065
:1092700007460C460AB1013333602368990642BFA2
:10928000336802333360256815F0060506D104F112
:10929000190AE36832689B1AAB4226DC94F8432033
:1092A000131E226818BF012392062BD404F1430237
:1092B00049463846C04701301ED02368E568326809
:1092C00003F00603042B08BFAD1AA36822690CBF84
:1092D00025EAE57500259342C4BF9B1AED180026C8
:1092E0001A34B5421AD1002008E0012352464946FB
:1092F0003846C047013003D14FF0FF30BDE8F0875A
:109300000135C6E7E1185A1C302081F84300224499
:1093100094F8451082F843100233C7E70123224630
:1093200049463846C0470130E6D00136D9E700004B
:109330002DE9FF470C469146277E0C99782F8046F1
:109340009A4604F1430207D8622F0AD8002F00F092
:10935000D880582F00F0A38004F1420684F84270B0
:109360003AE0A7F16303152BF6D801A050F823F0DB
:10937000C9930008DD930008599300085993000829
:109380005993000859930008DD9300085993000889
:10939000599300085993000859930008E99400086C
:1093A0000D940008CB9400085993000859930008C5
:1093B0000B950008599300080D9400085993000874
:1093C00059930008D39400080B681A1D1B680A60A3
:1093D00004F1420684F842300123A3E025680868BE
:1093E0002E0600F104030AD505680B60002D03DA90
:1093F0002D236D4284F843305E480A2319E015F0AE
:10940000400F05680B6018BF2DB2EFE70B682568A9
:10941000181D0860280601D51D6802E06906FBD505
:109420001D8854486F2F0CBF08230A23002184F89D
:1094300043106668A660002EA2BF216821F00401D7
:1094400021600DB9002E4DD01646B5FBF3F103FB9C
:109450001157C75D06F8017D2F46BB420D46F4D972
:10946000082B0BD12368DF0708D52369616899426F
:10947000DEBF302306F8013C06F1FF36921B226165
:10948000CDF800A04B4603AA21464046FFF7E2FE76
:1094900001304CD14FF0FF3004B0BDE8F0873548C3
:1094A00084F8457023680E681F0656F8045B0E604A
:1094B00014D5D90744BF43F0200323601DB92368A6
:1094C00023F0200323601023B0E7236843F0200338
:1094D00023607823284884F84530E3E75E0648BFD8
:1094E000ADB2E6E71646BBE70B68266860691D1D4E
:1094F0000D6035061B6801D5186002E07106FBD5CA
:109500001880002323611646BAE70B681A1D0A600B
:109510001E68626800213046FCF73AFE08B1801BE5
:10952000606063682361002384F84330A8E72369FF
:10953000324649464046D0470130ABD023689B07AE
:1095400013D4E068039B9842B8BF1846A4E70123F0
:10955000324649464046D04701309BD00135E3684A
:1095600003995B1AAB42F2DCEBE7002504F1190624
:10957000F5E700BF89F001089AF00108024B0A469E
:109580000146186801F0A7B93800002038B5064D2B
:109590000023044608462B6001F0ECF9431C02D17D
:1095A0002B6803B1236038BD404D00202DE9F74FF3
:1095B00003690C69A3420746C0F28180013C01F1B6
:1095C000140800F1140505EB8403019358F82430C6
:1095D00055F8242001339A424FEA840B08EB8409A2
:1095E000B2FBF3F631D34FF0000E4046AC46F246E4
:1095F00050F8042B93B206FB03E34FEA134E9BB2E1
:10960000AAEB0303120CDCF800A006FB02E213FA3B
:109610008AF34FEA124E1FFA82FADCF80020CAEBF6
:10962000124202EB23429BB243EA024381454CF8CB
:10963000043B4FEA224ADBD255F80B302BB9019B91
:10964000043B9D421A462ED33C61384601F055F842
:10965000002824DB013628464FF0000C58F8042B74
:10966000D0F800E093B2ACEB0303120C13FA8EF3C4
:10967000C2EB1E4202EB23429BB243EA0243C145C6
:1096800040F8043B4FEA224CE8D255F8242005EB81
:10969000840322B9043B9D421A460AD33C613046FA
:1096A00003B0BDE8F08F1268043B002ACCD1013C26
:1096B000C7E71268043B002AF0D1013CEBE7002029
:1096C000EEE70000000000002DE9F04F446A99B079
:1096D00016461F46CDE90467DDF8948005463CB97F
:1096E0001020FFF72FFAC0E9014468620460C460EB
:1096F0006B6A196851B15A684A60012393408B60C4
:10970000284600F005FE6B6A00221A603B1EB9BFB6
:1097100023F0004305930023C8F80030DDF81490CF
:10972000A74BBCBF0122C8F8002033EA090319D1B6
:10973000249A42F20F731360C9F31303334300F00A
:109740006D85269B53B99F4B23E09F4B03930833B2
:10975000269A1360039819B0BDE8F08F994B0393D4
:109760000333F5E7DDE90434CDE90C34DDE90C0120
:1097700000220023FDF78AF9804660B1249A012374
:109780001360269B002B00F04685904B269A1360B1
:10979000013B0393DEE716AB019317AB009328461A
:1097A000DDE90C2301F03AF8C9F30A548346002C92
:1097B0007ED00D9BCDF84C80C3F31303DDE90C0183
:1097C00043F07F5141F44011A4F2FF34804B00225A
:1097D000FCF73CFD74A3D3E90023FCF7EFFE74A370
:1097E000D3E90023FCF734FD064620460F46FCF77C
:1097F0007BFE71A3D3E90023FCF7E0FE02460B4693
:1098000030463946FCF724FD06460F46FDF786F93B
:1098100000228246002330463946FDF741F948B11F
:109820005046FCF761FE32463B46FDF72FF908B97A
:109830000AF1FF3ABAF1160F57D8664B03EBCA0389
:10984000D3E90023DDE90C01FDF72AF900284ED009
:109850000AF1FF3A00230F93169B1C1B631E09930A
:1098600045BFC4F101030693002300234CBF0993B5
:109870000693BAF1000F3CDB099BCDF838A05344A6
:10988000099300230A93229B092B00F2B580052B34
:10989000C4BF043B2293229BA3F10203CCBF00244C
:1098A0000124032B00F2B480DFE803F02D987AA4A2
:1098B000DDE916431C4404F23243202BC3BFC3F13D
:1098C000400304F2124009FA03F3C3F12003C6BFB8
:1098D00026FA00F0184306FA03F0FCF7F5FD012321
:1098E000A1F1F871013C139370E70123B3E70F90E6
:1098F000B2E7069BA3EB0A030693CAF100030A939F
:1099000000230E93BFE700230B93239B002B00F350
:1099100082804FF00109CDF820904B46CDF88C9015
:109920006E6A00227260042202F11400984271688B
:1099300077D9284600F0B8FC6B6A30601B68039347
:10994000089B0E2B00F2EE80002C00F0EB80BAF1A9
:10995000000F7ADD1F4A0AF00F0302EBC303D3E9BD
:1099600000341AF4807FCDE910344FEA2A145CD019
:10997000194BDDE90C01D3E90823FCF749FFCDE9D8
:10998000040104F00F040327134E002C4FD1DDE92E
:109990001023DDE90401FCF73BFFCDE904016EE093
:1099A0000123B1E7AFF3008061436F63A787D23F24
:1099B000B3C8608B288AC63FFB799F501344D33FBE
:1099C0000000F07FB4F00108ABF0010844FD01088D
:1099D0000000F83FE0F00108B8F0010800230B9305
:1099E000239B0AEB030909F10103012B0893B8BF7C
:1099F000012395E70123F2E70124002322930B942E
:109A00004FF0FF390022CDF820901223239287E7F0
:109A100001230B93F4E7DDF88C90CDF820904B46B2
:109A20007EE70131716052007EE70227ACE7E10773
:109A300008D5DDE91001D6E90023FCF7BFFDCDE92B
:109A400010010137641008369FE700F0A580CAF1C5
:109A50000004A44BA44E04F00F0203EBC203D3E9AD
:109A60000023DDE90C01FCF7A9FDCDE90401241177
:109A700000230227002C40F08480002B8DD10F9B07
:109A8000002B00F08B80DDE90434CDE91034DDE9F2
:109A90001001964B0022FDF703F800287ED0089BAA
:109AA000002B7BD0B9F1000F38DDDDE91001904BC0
:109AB0000022FCF783FDCDE904010AF1FF380137EC
:109AC0004C463846FCF710FDDDE90423FCF776FD33
:109AD000884B0022FCF7BCFBA1F15076CDE91001C8
:109AE0001196002C5DD1DDE90401834B0022FCF7C7
:109AF000ADFB02460B46CDE90423109A3346FCF732
:109B0000EDFF002840F09782DDE90401109A06F18C
:109B10000043FCF7C5FF002840F08B82DDE90C34E0
:109B2000CDE90434179B002BC0F25181BAF10E0F1E
:109B300000F34D816B4B03EBCA03D3E90034CDE94D
:109B40000634239B002B80F2DB80089B002B00F364
:109B5000D78040F06D82684B0022DDE90601FCF7FA
:109B60002DFDDDE90423FCF7AFFF089C2646002805
:109B700040F04382039F312307F8013B0AF1010AB9
:109B80003FE2E20705D5D6E90023FCF717FD0137D0
:109B90000123641008366DE7022770E7089CD04661
:109BA0008FE703994F4B214412910B9903EBC403A8
:109BB000DDE9106753E90223002946D04F49002010
:109BC000FCF726FE3B463246FCF740FBCDE9100190
:109BD000039FDDE90401FCF7A1FF0446FCF784FCC8
:109BE00002460B46DDE90401FCF730FB3034024647
:109BF0000B46CDE9042307F8014BDDE91023FCF700
:109C00004FFF002865D1DDE9042338490020FCF727
:109C10001DFBDDE91023FCF743FF002840F0B68070
:109C2000129B9F423FF47AAFDDE91001304B0022D6
:109C3000FCF7C4FC2E4BCDE910010022DDE9040144
:109C4000FCF7BCFCCDE90401C3E730463946FCF71C
:109C5000B5FCCDE91001129B039C1493DDE90401CE
:109C6000FCF75CFF1590FCF73FFC02460B46DDE974
:109C70000401FCF7EBFA159B303304F8013B129B0F
:109C80009C4206460F464FF0000224D11B4BDDE9F3
:109C90001001FCF7DDFA02460B4630463946FCF768
:109CA0001DFF002871D1DDE9102314490020FCF7C5
:109CB000CDFA02460B4630463946FCF7F1FE002845
:109CC0003FF42CAF149F7B1E149317F8013C302BEC
:109CD000F8D0C24649E0064BFCF770FCCDE9040120
:109CE000BCE700BFE0F00108B8F001080000F03F59
:109CF0000000244000001C40000014400000E03F31
:109D0000DDE90489039FDDE9062340464946FCF767
:109D10007FFDFCF703FF0446FCF7E6FBDDE90623C5
:109D2000FCF74CFC04F130060B460246494640461F
:109D3000FCF78CFA07F8016B039E089BBE1BB3422D
:109D400038D102460B46FCF783FADDE9062380464C
:109D50008946FCF7C3FE58BBDDE906234046494669
:109D6000FCF794FE08B1E10722D42846594600F0DA
:109D7000CFFA00233B70249B0AF101001860269B58
:109D8000002B3FF4E7AC1F60E4E427463B461F4648
:109D900013F8012D392A07D1039A9A42F7D1039972
:109DA000302208F101080A701A7801321A7090E71F
:109DB000D046EBE7A14B0022FCF700FC0022002379
:109DC00080468946FCF762FE00289CD0CDE70B9ABE
:109DD000002A00F0CD80229A012A00F3AF80139A66
:109DE000002A00F0A78003F233430A9C069F069ADC
:109DF0001A440692099A01211A442846099200F051
:109E00002AFB0646002F0CDD099B002B09DDBB4217
:109E1000069AA8BF3B46D21A0692099AFF1AD31A8D
:109E200009930A9BF3B10B9B002B00F0A580002C3B
:109E300010DD31462246284600F0B2FB5A46014664
:109E40000646284600F010FB59468046284600F09A
:109E50005FFAC3460A9B1A1B04D05946284600F0F5
:109E60009FFB83460121284600F0F5FA0E9B002B4C
:109E7000044640F383801A460146284600F090FBD2
:109E8000229B012B04467CDD4FF00008236904EB84
:109E90008303186900F091FAC0F12000099B18446F
:109EA00010F01F0000F08E80C0F12003042B40F35F
:109EB0008780C0F11C00069B03440693099B034462
:109EC00007440993069B002B05DD59461A46284690
:109ED00000F0B4FB8346099B002B05DD21461A46A2
:109EE000284600F0ABFB04460F9B002B6CD02146AC
:109EF000584600F002FC002866DA002359460A2280
:109F0000284600F01CFA0B9B0AF1FF3A8346002B0F
:109F100000F08B81314600230A22284600F00FFA18
:109F2000B9F1000F064600F39180229B022B40F30B
:109F30008D8051E0169BC3F1360356E7089B5C1EEB
:109F40000A9BA342BFBF0A9B0A94E21A0E9BB6BFAC
:109F50009B181C1B0E93089BB8BF0024002BB9BF95
:109F6000069B089A069F089BBCBF9F1A00233EE7EA
:109F70000A9C069F0B9E45E70A9A6EE7229B012BDF
:109F800019DC049BBBB9059BC3F313039BB9059B69
:109F900023F000431B0D1B0583B1069B0133069381
:109FA000099B013309934FF001080E9B002B7FF4AE
:109FB0006DAF012072E74FF00008F6E79846F4E72E
:109FC00080D018461C3076E7089B002B38DC229B9B
:109FD000022B35DDDDF82090B9F1000F0DD12146BF
:109FE0004B460522284600F0AAF901460446584689
:109FF00000F083FB00283FF7BDAD239B039F6FEA72
:10A00000030A4FF000082146284600F081F9002E8F
:10A010003FF4ABAEB8F1000F05D0B04503D04146D8
:10A02000284600F075F93146284600F071F99CE6A3
:10A0300000242646E1E7C24626469BE50000244070
:10A040000B9BDDF82090002B00F0F680002F05DD43
:10A0500031463A46284600F0F1FA0646B8F1000FBC
:10A0600055D07168284600F01FF932690232074660
:10A07000920006F10C010C3000F0FCF80122394688
:10A08000284600F0DBFA039B01330893039B4B4403
:10A090000A93049B03F00103B04609930646089B0C
:10A0A0002146013B58460493FFF780FA03463033BC
:10A0B0000690414658460B9300F01FFB32468146FE
:10A0C0002146284600F034FBC2680B9B074602BBC2
:10A0D0000146584600F011FB0B9B024639462846C4
:10A0E000CDE90B3200F014F9229B0C9A089F43EA49
:10A0F0000201099B0B430B9B0DD1392B29D0B9F1E0
:10A10000000F01DD069B3133049A13707BE7304664
:10A11000B9E70122E2E7B9F1000F06DB229941EA33
:10A120000909099959EA010120D1002AECDD5946B3
:10A1300001222846089300F081FA2146834600F068
:10A14000DCFA0028089B02DCDED1DA07DCD5392BEB
:10A15000D8D1049A392313703B461F46013B17F8A8
:10A16000012C392A50D001321A704CE7002A03DD45
:10A17000392BEED00133C7E7089A0A9902F8013C5F
:10A180008A422AD0594600230A22284600F0D7F8EE
:10A19000B04583464FF000034FF00A02414628467F
:10A1A00007D100F0CCF880460646089B013308939F
:10A1B00075E700F0C4F83146804600230A2228469D
:10A1C00000F0BDF80646F0E7B9F1000F039ACCBFE6
:10A1D0004F46012717444FF00008594601222846F0
:10A1E000089300F02BFA2146834600F086FA0028F7
:10A1F000B2DC02D1089BDB07AED43B461F4613F806
:10A20000012D302AFAD0FEE6039A9A42A5D10AF12E
:10A21000010A312379E7134BFFF7BBBA269B002BCA
:10A220007FF493AA104BFFF7B4BAB9F1000F03DC27
:10A23000229B022B3FF7D0AE039F21465846FFF7E3
:10A24000B5F900F1300307F8013B039ABA1A9145BA
:10A25000BADD594600230A22284600F070F88346EA
:10A26000EBE700BF43FD0108ABF001080048704771
:10A270008C0100200A44914200F1FF3300D1704765
:10A2800010B511F8014B03F8014F9142F9D110BDFF
:10A29000014800F046BB00BF484D0020014800F0D7
:10A2A00041BB00BF484D002070B5466A04460D46CC
:10A2B0003EB91020FEF746FCC0E901666062066008
:10A2C000C660666AF36883B1636ADB6853F8250089
:10A2D000B8B9012101FA05F6721D9200204600F07E
:10A2E000ECFA60B1C0E901560EE0212204212046BB
:10A2F00000F0E3FA636AF060DB68002BE4D1002031
:10A3000070BD026843F825200023C0E90333F7E756
:10A3100070B5466A05460C463EB91020FEF712FCA1
:10A32000C0E9016668620660C6603CB16B6A62683B
:10A33000DB6853F82210216043F8224070BD2DE9FC
:10A34000F0410E69074698460C4601F114000023BF
:10A350000568A9B202FB01814FEA114C2D0C02FBEA
:10A3600005C589B2013301EB05419E4240F8041B4B
:10A370004FEA1548ECDCB8F1000F1BD0A368B342DC
:10A3800012DC616838460131FFF78EFF2269023224
:10A3900004F10C01054692000C30FFF76BFF2146DB
:10A3A0003846FFF7B5FF2C4604EB86030136C3F8A9
:10A3B000148026612046BDE8F081020C1204034699
:10A3C000CAB90304102013F07F4F04BF1B020830EA
:10A3D00013F0704F04BF1B01043013F0404F04BF53
:10A3E0009B000230002B05DB13F0804F00F10100D1
:10A3F00008BF202070470020E5E70368024613F0FD
:10A4000007000BD0D90722D4980749BF5B089B08E7
:10A41000012013605CBF13600220704799B209B934
:10A420001B0C102013F0FF0F04BF1B0A0830190784
:10A4300004BF1B090430990704BF9B080230D907E9
:10A4400003D45B0800F1010003D0136070470020C3
:10A4500070472020704710B50C460121FFF724FFFC
:10A4600001224461026110BD2DE9F04F15460A69D1
:10A470002B699A42B8BF0B460C46BCBF2C461D4602
:10A480002769D5F81090A368616807EB0906B34205
:10A49000B8BF013185B0FFF707FF00F1140101EBF0
:10A4A00086080B46002243451DD304F1140305F131
:10A4B000140203EB870702EB890302933B1B153B56
:10A4C00023F00303043304F11505AF4238BF04231E
:10A4D0000193029B0392934208D8002E5ADC066136
:10A4E00005B0BDE8F08F43F8042BDCE7B2F800A01C
:10A4F000BAF1000F24D004F1140E89464FF0000C7D
:10A500005EF8045BD9F800B0ABB21FFA8BFB0AFB14
:10A5100003B34FEA154BD9F8005063444FEA154C8A
:10A520000AFB0BC505EB13459BB243EA0543774590
:10A5300049F8043B4FEA154CE2D8019B41F803C0AF
:10A54000039BB3F802900432B9F1000F20D00B68DE
:10A5500004F1140C8E464FF0000ABCF80050BEF80F
:10A5600002B009FB05B5AA449BB243EA0A434EF880
:10A57000043B5CF8043BBEF800501B0C09FB035382
:10A5800003EB1A4367454FEA134AE6D8019D4B5146
:10A5900004319EE758F8043D002BA0D1013E9CE712
:10A5A0002DE9F843154612F0030206460F4607D080
:10A5B000214C013A002354F82220FFF7C0FE074641
:10A5C000AD1035D0746A3CB91020FEF7BBFAC0E973
:10A5D000014470620460C460D6F82480D8F8084052
:10A5E0004CB940F271213046FFF735FF0023C8F81F
:10A5F0000800044603604FF00009EB070AD539460E
:10A6000022463046FFF730FF394680463046FFF796
:10A610007FFE47466D100BD0206838B92246214690
:10A620003046FFF721FF2060C0F800900446E4E7C1
:10A630003846BDE8F88300BFA8F101082DE9F047CE
:10A640000C464968236903EB6218A36807469146E4
:10A650004FEA621A08F10106B3423FDB3846FFF7C2
:10A6600023FE0023054600F1140100F110021846F4
:10A67000534536DB20692AEAEA7A04F1140319F01B
:10A680001F0901EB8A0103EB800C2ED0C9F1200ECB
:10A690008A460022186800FA09F002434AF8042B9F
:10A6A00053F8042B9C4522FA0EF2F3D8ACEB0403CA
:10A6B000153B23F00303043304F11500604588BF04
:10A6C0000423CA500AB108F10206013E38462E6141
:10A6D0002146FFF71DFE2846BDE8F08701315B00EB
:10A6E000BAE742F8040F0133C2E7043953F8042BE8
:10A6F00041F8042F9C45F9D8E7E70A690346006949
:10A70000801A30B50DD11433143103EB820401EB00
:10A71000820154F8045D51F8042D954202D004D30F
:10A72000012030BDA342F4D3FBE74FF0FF30F8E740
:10A730002DE9F84F0C460646114620461746FFF70E
:10A74000DCFF051E08D129463046FFF7ADFD012389
:10A75000C0E90435BDE8F88FA4BF3B462746304624
:10A760007968A6BF1C4600250125FFF79DFD3E69BF
:10A77000C560256907F1140104F1140900F1140EF4
:10A7800007F1100201EB860C09EB8505F246002764
:10A7900059F8043B52F804BF1FFA83F817FA8BF7F5
:10A7A0001B0CA7EB0808C3EB1B4303EB28431FFA62
:10A7B00088F81F144D4548EA03434AF8043BE7D89C
:10A7C0002B1B153B23F0030304331534A54238BF7C
:10A7D0000423194473449E460D4665450ED30CF17F
:10A7E0000302521A22F0030203398C4538BF0022BB
:10A7F0001A4452F8043D7BB10661ABE755F8048B6F
:10A8000017FA88F4221402EB1842A4B244EA024474
:10A810004EF8044B1714E0E7013EEAE72DE9F34157
:10A8200001211C46DDE908659046FFF73DFDC4F3B4
:10A830001303C4F30A5407462CBB0193B8F1000379
:10A8400026D068460093FFF7D8FD0099F0B1019A31
:10A85000C0F1200302FA03F30B43C2407B61019273
:10A86000019BBB61002B14BF022101213961C4B1DE
:10A87000A4F233440444C0F1350034602860384603
:10A8800002B0BDE8F08143F48013D6E77961E7E7D1
:10A8900001A8FFF7B2FD019B7B61012139612030E6
:10A8A000E5E707EB8103A0F2324030601869FFF75B
:10A8B00084FDC0EB41112960E1E738B502FB01F5E9
:10A8C0002946FEF7A5F9044618B12A460021FEF7ED
:10A8D00049F9204638BDF8B5074614460E4621B959
:10A8E000BDE8F8401146FEF793B922B9FEF742F9E8
:10A8F00025462846F8BD00F028F8A0420FD2214690
:10A900003846FEF785F905460028F2D03146224642
:10A91000FFF7B0FC31463846FEF72CF9E9E735463B
:10A92000E7E77047704782B001B901A942B14BB166
:10A9300013780B601278101E18BF012002B0704708
:10A940001046FBE76FF00100F8E751F8043C181FD0
:10A95000002BBCBF0B58C01870470346084641B1D6
:10A96000FF2A04D98A221A604FF0FF3070470A701C
:10A9700001207047044A05491368002B08BF0B46A5
:10A980001844106018467047C40600203863002041
:10A99000FCF7E6BFFDF770B80D48854612F0E8FBFE
:10A9A0000C480D490D4A002302E0D458C45004332A
:10A9B000C4188C42F9D30A4A0A4C002301E0136000
:10A9C0000432A242FBD3FEF799F8FDF7F5FEFEE74D
:10A9D00000FC00200000002018050020D000020824
:10A9E000180500203863002000F05AB80368074AB1
:10A9F000934206D1DA69D20606D510221A6201F016
:10AA0000BFB8034A9342F5D0704700BF00800040B2
:10AA1000003801404FF0B0434FF0FF319A6B99631B
:10AA2000DA6BD9639A6B00229A63D86BDA63186C7D
:10AA30001964186C1A64586C5964586C5A64986A92
:10AA40009962986A9A62D86AD962D86ADA62186B8F
:10AA50001963196B1A635A6C42F001025A645A6CFA
:10AA600022F001025A64D3F8902042F48032C3F8F5
:10AA70009020D3F8902022F48032C3F89020BFF3C6
:10AA80004F8F0549054BCA6802F4E0621343CB605F
:10AA9000BFF34F8F00BFFDE700ED00E00400FA05B3
:10AAA0004FF0B0434FF0FF319A6B9963DA6BD96383
:10AAB0009A6B00229A63D86BDA63186C1964186C6D
:10AAC0001A64586C5964586C5A64986A9962986A06
:10AAD0009A62D86AD962D86ADA62186B1963196BFC
:10AAE0001A635A6C42F001025A645A6C22F0010255
:10AAF0005A64D3F8902042F48032C3F89020D3F8FF
:10AB0000902022F48032C3F89020FEE7FEE7FEE7B3
:10AB1000FEE77047704705F0CBB90000014808F028
:10AB20001FB900BF1C4F0020014808F0F8BD00BF4E
:10AB3000344D0020014808F0DBBA00BF1C4F002054
:10AB4000014806F0A3BB00BF50530020014806F0A7
:10AB50009DBB00BF544F0020014806F097BB00BFCB
:10AB6000B44F0020014806F091BB00BF60520020A6
:10AB700010B5044C204608F001FF2046BDE8104007
:10AB8000FFF734BFC05200207047012006F006BD19
:10AB9000022006F003BD042006F000BD082006F0E8
:10ABA000FDBC102006F0FABC0E4BDA68920602D506
:10ABB000202006F0F3BCDA68500601D54020F8E703
:10ABC000DA68110601D58020F3E7DA68D20502D5EC
:10ABD0004FF48070EDE7DB689B0502D54FF4007001
:10ABE000E7E7704700080058134BDA68510503D5B2
:10ABF0004FF4806006F0D2BCDA68120502D54FF43B
:10AC00000060F7E7DA68D00402D54FF48050F1E72E
:10AC1000DA68910402D54FF40050EBE7DA68520489
:10AC200002D54FF48040E5E7DB681B0402D54FF402
:10AC30000040DFE7704700BF0008005810B5044C23
:10AC4000204608F09BFE2046BDE81040FFF7CEBE30
:10AC5000D0510020014806F03FBE00BF0451002043
:10AC6000014807F0C0BA00BF04510020014805F0B8
:10AC7000D9BE00BF104E0020704770472DE9F04F3D
:10AC80003B4EDFF8F4C085B002AF044690469A46CA
:10AC9000384AF26000233046C6E900C3C6E90933EA
:10ACA0003D8ED7F834B0B36089467361F36205F026
:10ACB000E1FA304A7A6008B100F0F2FC2C4805F065
:10ACC000FCFA08B100F0ECFC2B480422C6E90002B3
:10ACD0000022B260002C39D1746100227B682448C4
:10ACE000F3600121C6E90912F26205F0C3FA08B166
:10ACF00000F0D6FC2B071DBF25F00F041034A4B2C2
:10AD00002C46A300073323F00703ADEB030D02AE7F
:10AD1000224600213046FDF725FF2A46514630469F
:10AD2000FFF7A8FAFF23009311485B4622463146FD
:10AD3000B9F1000F14D105F017FD70B90C4805F0FA
:10AD4000BCFA80B90C37BD46BDE8F08F012C0CBFB2
:10AD500020224022C6E90482BFE76FF00600F1E737
:10AD600005F090FDE9E700F09BFC0020EAE700BF5A
:10AD7000104E0020C80600200018005821F00803DB
:10AD8000102B01D0202911D10A4B00F11002C178FB
:10AD90001970817859704178997010F8041BD97036
:10ADA000904203F10403F2D1002070476FF01F00BE
:10ADB000704700BFC806002007B5CDE90012002289
:10ADC000034611461046FFF759FF03B05DF804FB38
:10ADD00008B5FFF7D3FFC0B208BD08B510230A4677
:10ADE0001946FFF7E9FFC0B208BD0000034B00227F
:10ADF0001A70034B01221A70704700BFBC6100201B
:10AE000040620020024B53F8203003B118477047CE
:10AE1000D80E0020002201230342D1B202F1010228
:10AE20000DD02F290ED8084B084800221A7008238D
:10AE300000F8313000EBC100416004F0C5BF5B0099
:10AE40009BB2E9E7704700BFBC610020580E0020AC
:10AE5000000900F590108002704700F00F030120F8
:10AE6000984080B2704700002F2870B503461CD868
:10AE7000142444430D4A03F00F060125B540155133
:10AE80001019022500240129C0E9024501D14160C1
:10AE900001E00029FBD01846FFF7DAFF1421BDE8D6
:10AEA000704001FB032106F04DBA70BDD8060020AA
:10AEB0002F2870B504460D4624D8FFF7C9FF01239B
:10AEC00004F00F0103FA01F1064606F0E7FA0E4A14
:10AED000142325B903FB04230221996004E0012D0A
:10AEE0000AD103FB04239D60142101FB0421304699
:10AEF000BDE8704006F026BA022DF5D103FB04230D
:10AF00000021EAE770BD00BFD80600202F2808B551
:10AF10000A46034615D851B9FFF79AFF012103F0FD
:10AF20000F03994089B2BDE8084006F031BB012902
:10AF300007D1FFF78DFF03F00F0301FA03F399B276
:10AF4000F1E708BD2F28F8B5054600F28280414E92
:10AF50001422424300F00F040123B018A340B35061
:10AF600003294FF00202C2602DD801292ED94FF4D7
:10AF7000881242602846FFF76BFFC76893FAA3F276
:10AF8000B2FA82F2510003228A403A4093FAA3F3C4
:10AF9000B3FA83F35B0022FA03F3012B4FF01402A0
:10AFA0001ED0022B1CD0142101FB056106F0CAF94A
:10AFB000D4B906202246022104F0C2FF0620BDE8D3
:10AFC000F84004F0EFBF0439012906D9142202FB2E
:10AFD00005624FF444115160CCE74FF40412C8E706
:10AFE00002FB05629360DEE7012C06D107200022F8
:10AFF000022104F0A5FF0720E1E7022C06D108207A
:10B000000022214604F09CFF0820D8E7032C06D13B
:10B0100009200022022104F093FF0920CFE7042C2D
:10B0200006D10A200022022104F08AFF0A20C6E786
:10B03000053C042C4FF000024FF0020104D816200A
:10B0400004F07EFF1620BAE7292004F079FF2920BA
:10B05000B5E7F8BDD8060020044B00F00F0053F808
:10B0600020200AB943F8201000207047D80E002095
:10B070002DE9F843174E184D184FDFF86480DFF8BC
:10B08000649000240F2C05DDA4F11203052B01D9D7
:10B090001C2C15D157F8243093B973682B60B36812
:10B0A0006B60F368AB603369EB602B7C43B198F85D
:10B0B00000102046FFF746FF49462046FFF7CCFF29
:10B0C0000134302C06F1140605F11405DAD1BDE87F
:10B0D000F88300BFD8060020980A0020D80E002070
:10B0E00008020020EDAD0008F8B5124E124D134FC6
:10B0F00000240F2C05DDA4F11203052B01D91C2C13
:10B1000010D157F824306BB933686B607368AB604B
:10B11000B368EB602046F3682B61FFF799FE294680
:10B1200006F010F90134302C06F1140605F114056F
:10B13000DFD1F8BD980A0020D8060020D80E0020E4
:10B1400000B58DB02C22002101A8FDF70BFD17489A
:10B15000174B03604FF080420023C0E90433C0E97D
:10B160000723836083614FF48073436207F076FEA8
:10B1700008B100F095FA0D4807F094FF08B100F00F
:10B180008FFA4FF07C5300220793084808924FF43F
:10B19000807301A9029206920B9307F0BBFE08B1DF
:10B1A00000F07EFA00200DB05DF804FB1C4F00207B
:10B1B0000028004007B5074B0DF106001B699847B2
:10B1C000BDF806304FF47A7202FB0030002103B064
:10B1D0005DF804FB40EF01087047704708B50A4866
:10B1E00007F0A5FF002211460C2004F0A9FE0C2058
:10B1F00004F0D8FE00220D20114604F0A1FEBDE8A7
:10B2000008400D2004F0CEBE0C0200207047000064
:10B2100038B5054D002415F8013B0BB1FFF7DEFFF3
:10B220000134042CF7D138BD980F0020BFF34F8FA5
:10B230000549064BCA6802F4E0621343CB60BFF3D2
:10B240004F8F00BFFDE700BF00ED00E00400FA05EE
:10B2500072B6EFF3108303607047036883F31088BE
:10B2600062B6704708B504480BF02CF9002814BFEB
:10B270006FF00600002008BD9C0F0020084A03461E
:10B28000002108481170042200F83320064A00EB20
:10B29000C3000C2101FB0323436004F095BD00BFF4
:10B2A000BC610020DC0F002040100020084A03464B
:10B2B000002108481170052200F83320064A00EBEF
:10B2C000C3000C2101FB0323436004F07DBD00BFDC
:10B2D000BC610020B40F00200410002083680BB173
:10B2E000406818477047003818BF012070470BF0BE
:10B2F0007DB8000037B503460C2410460E4A5C4367
:10B300001519042B135598BF0C4AA96094BF52F825
:10B3100023400024FFF7E7FF4FF0FF310246009380
:10B320002046074B0BF06CF8002814BF6FF00600A6
:10B33000002003B030BD00BF40100020C0F2010863
:10B340007DB20008042898BF0D4B70B598BF53F824
:10B3500020400C4D4FF00C0303FB00F305EB0306FC
:10B3600088BF0024E854726020460BF035F918B904
:10B3700020460BF0F7F808B16FF0060070BD00BF73
:10B38000C0F2010840100020042898BF0B4A08B5FD
:10B39000034698BF52F82000094A4FF00C0101FB08
:10B3A00003234FF0000288BF00205A600BF08AF898
:10B3B000002814BF6FF00600002008BDC0F201088D
:10B3C0004010002037B503460C2410460E4A5C435B
:10B3D0001519042B135598BF0C4AA96094BF52F855
:10B3E00023400024FFF77FFF4FF0FF310246009318
:10B3F0002046074B0BF004F8002814BF6FF006003E
:10B40000002003B030BD00BF04100020D4F20108BA
:10B41000ADB20008042898BF0D4B70B598BF53F823
:10B4200020400C4D4FF00C0303FB00F305EB03062B
:10B4300088BF0024E854726020460BF0CDF818B99C
:10B4400020460BF08FF808B16FF0060070BD00BF0A
:10B45000D4F2010804100020042898BF0B4A08B554
:10B46000034698BF52F82000094A4FF00C0101FB37
:10B4700003234FF0000288BF00205A600BF022F82F
:10B48000002814BF6FF00600002008BDD4F20108A8
:10B490000410002008B5164B164A1A605A680AB9FB
:10B4A000154A5A6000220121C3E90221C3E904229E
:10B4B000C3E906221A620E48102283F8422006F0E1
:10B4C000FDF808B100F0ECF80948002106F0C9FECB
:10B4D00008B100F0E5F80648002106F0E8FE08B1E2
:10B4E00000F0DEF8BDE808404FF4001006F004BF9D
:10B4F00004510020005800405C08700010B504465C
:10B50000FFF7C8FF014B01221A5510BD7C10002027
:10B5100010B50446044806F022F908B100F0C0F85E
:10B52000024B00221A5510BD045100207C1000204F
:10B5300008B5164B9942164B20D8164A5A601B681C
:10B5400013B3134806F00BF9114806F0B7F808B129
:10B5500000F0A6F80E48002106F083FE08B100F0C6
:10B560009FF80B48002106F0A2FE08B100F098F801
:10B57000BDE808404FF4001006F0BEBE064A9142F6
:10B5800094BF064A064AD9E708BD00BFA08601005D
:10B5900004510020DB0A301090D003009F0D700092
:10B5A0005C08700013B59DF81000002814BF4FF020
:10B5B00000700020009049000A4806F0E9F850B9F0
:10B5C000084C204606F048FE2028FAD1054806F02F
:10B5D00046FE042803D16FF0030002B010BD002026
:10B5E000FBE700BF0451002013B54FF0007000903E
:10B5F00049000A4806F01EF950B9084C204606F0EA
:10B600002BFE2028FAD1054806F029FE042803D194
:10B610006FF0030002B010BD0020FBE704510020D2
:10B620007047000038B5054D002415F8013B0BB1FB
:10B63000FFF730FF0134042CF7D138BD7C10002017
:10B64000BFF34F8F0549064BCA6802F4E06213430B
:10B65000CB60BFF34F8F00BFFDE700BF00ED00E000
:10B660000400FA054FF0B04382B09A6C02439A642A
:10B670009B6C18400190019B02B0704710B5064CBE
:10B6800006498022204608F0A3FE2268136843F092
:10B690001003136010BD00BFD05100205051002096
:10B6A00008B5FFF7CDFF0000012810B50BD1094CFC
:10B6B00009498022204608F08BFE2268136843F077
:10B6C0001003136010BD0228FCD1BDE81040FFF745
:10B6D000D5BF00BFC0520020B15300202DE9F04378
:10B6E00085B0012B9DF830509DF8348014BF0027A1
:10B6F0004FF40057012D04460E4639D0032D3AD0A1
:10B70000002D3BD00025013AD2B2022A38D85F4B37
:10B7100053F82290012C65D10420FFF7A3FF2046A7
:10B72000FFF7A0FF002211460E2004F009FC0E20B6
:10B7300004F038FC564B574883F80180564B05619E
:10B74000C0E900360C240023C0E90297C0E9054394
:10B75000C0E907334362B8F1000F17D008238362B2
:10B760004FF40043836308F0ADFDA0B1FFF768FF1D
:10B770004FF4C065C7E74FF48065C4E7022A02D0E2
:10B780004FF00009C6E74FF08059C3E7C0F82880A2
:10B7900008F068FDE9E700213E4808F0F5FE0146A3
:10B7A0000028E3D13B4808F013FF0028DED13948D8
:10B7B00008F0CFFE0028D9D10120FFF775FF4FF424
:10B7C0004013019A33480093194608F04FFE0028B1
:10B7D000CCD14FF0B042936843F40043936005B07E
:10B7E000BDE8F083022CFAD1294B2C4C83F802805F
:10B7F0000420FFF737FF0120FFF734FF0022114636
:10B800000B2004F09DFB0B2004F0CCFB244B2561A6
:10B81000C4E900360C2200232046C4E90297C4E99B
:10B820000523C4E90833A362636608F01BFD0146E3
:10B8300000289BD1204608F0A7FE0146002895D19C
:10B84000204608F0C5FE002890D1204608F081FE71
:10B8500000288BD1FFF712FF4FF44013029304AB83
:10B8600013E90600204608F001FE00287FF47EAFB1
:10B870000C4AD2F8803043F08053C2F880302268FE
:10B88000936843F480039360A3E700BFE8F20108E4
:10B89000B0140020C052002000380140D0510020D8
:10B8A00000800040000800582DE9F7439DF82890DB
:10B8B0009DF82C40CDE9009416461D4680460F4663
:10B8C0000C24FFF70BFF074B04FB08F01C180122A8
:10B8D0001A5467602672657284F80A9003B0BDE856
:10B8E000F08300BF8C140020022810B5044605D157
:10B8F000074807F0A5FF28B1FFF7A2FE012801D1F4
:10B900000448F6E70C20044B444300221A5510BDAE
:10B91000D0510020C05200208C140020012870B5A6
:10B920000D461E4620D194B2144A5278013A012A9B
:10B9300014D8134808F0E9F922461148334629463D
:10B9400008F000FC04460E4808F005FA9CB1022CF1
:10B9500014BF6FF006006FF0050070BD0848224666
:10B9600008F0F0FB0446F1E7022802D1054892B244
:10B97000F6E70020F1E72046EFE700BFB014002013
:10B98000C0520020D0510020012802D1044800F00C
:10B990003DBA022801D10348F9E76FF0060070476D
:10B9A0007002002084020020012807B507D1084852
:10B9B0000DF1070100F070FA03B05DF804FB0228F6
:10B9C00003D104480DF10701F4E76FF00600F3E737
:10B9D0007002002084020020012802D1034800F0F8
:10B9E00052BA022801D10248F9E7704770020020DC
:10B9F00084020020012802D1044800F0ABB90228DB
:10BA000001D10348F9E76FF006007047700200208B
:10BA100084020020F8B5224D224F00240C23224A34
:10BA200063439B5CCBB1022C1BD1204E3368DA6997
:10BA3000D103FCD4DA695202FCD51C4808F05DFD44
:10BA400033681A4810221A621A6822F010021A602B
:10BA500007F014FFF06F05F00FFB0134032CDDD16C
:10BA6000F8BD012CF9D108232B624FF480132B620F
:10BA700055E8003F43F0020345E80032002AF7D1C1
:10BA800057E8003F43F4800347E80032002AF7D12B
:10BA9000074AD2F8803043F08063C2F88030DCE798
:10BAA00000380140083801408C140020D05100209B
:10BAB0000008005873B50B4C0B4E4FF0FF35012DAD
:10BAC0000BD923784BB133780193A37A0093227A70
:10BAD000637A61680020FFF701FE0135022DEED187
